{
  "abi": [
    {
      "inputs": [
        {
          "internalType": "string",
          "name": "name",
          "type": "string"
        },
        {
          "internalType": "string",
          "name": "symbol",
          "type": "string"
        }
      ],
      "stateMutability": "nonpayable",
      "type": "constructor"
    },
    {
      "anonymous": false,
      "inputs": [
        {
          "indexed": true,
          "internalType": "address",
          "name": "owner",
          "type": "address"
        },
        {
          "indexed": true,
          "internalType": "address",
          "name": "approved",
          "type": "address"
        },
        {
          "indexed": true,
          "internalType": "uint256",
          "name": "tokenId",
          "type": "uint256"
        }
      ],
      "name": "Approval",
      "type": "event"
    },
    {
      "anonymous": false,
      "inputs": [
        {
          "indexed": true,
          "internalType": "address",
          "name": "owner",
          "type": "address"
        },
        {
          "indexed": true,
          "internalType": "address",
          "name": "operator",
          "type": "address"
        },
        {
          "indexed": false,
          "internalType": "bool",
          "name": "approved",
          "type": "bool"
        }
      ],
      "name": "ApprovalForAll",
      "type": "event"
    },
    {
      "anonymous": false,
      "inputs": [
        {
          "indexed": true,
          "internalType": "address",
          "name": "previousOwner",
          "type": "address"
        },
        {
          "indexed": true,
          "internalType": "address",
          "name": "newOwner",
          "type": "address"
        }
      ],
      "name": "OwnershipTransferred",
      "type": "event"
    },
    {
      "anonymous": false,
      "inputs": [
        {
          "indexed": false,
          "internalType": "address",
          "name": "account",
          "type": "address"
        }
      ],
      "name": "Paused",
      "type": "event"
    },
    {
      "anonymous": false,
      "inputs": [
        {
          "indexed": true,
          "internalType": "address",
          "name": "from",
          "type": "address"
        },
        {
          "indexed": true,
          "internalType": "address",
          "name": "to",
          "type": "address"
        },
        {
          "indexed": true,
          "internalType": "uint256",
          "name": "tokenId",
          "type": "uint256"
        }
      ],
      "name": "Transfer",
      "type": "event"
    },
    {
      "anonymous": false,
      "inputs": [
        {
          "indexed": false,
          "internalType": "address",
          "name": "account",
          "type": "address"
        }
      ],
      "name": "Unpaused",
      "type": "event"
    },
    {
      "inputs": [],
      "name": "_contractURI",
      "outputs": [
        {
          "internalType": "string",
          "name": "",
          "type": "string"
        }
      ],
      "stateMutability": "view",
      "type": "function"
    },
    {
      "inputs": [],
      "name": "_maxTokens",
      "outputs": [
        {
          "internalType": "uint256",
          "name": "",
          "type": "uint256"
        }
      ],
      "stateMutability": "view",
      "type": "function"
    },
    {
      "inputs": [],
      "name": "_mintPrice",
      "outputs": [
        {
          "internalType": "uint256",
          "name": "",
          "type": "uint256"
        }
      ],
      "stateMutability": "view",
      "type": "function"
    },
    {
      "inputs": [],
      "name": "_placeholderURI",
      "outputs": [
        {
          "internalType": "string",
          "name": "",
          "type": "string"
        }
      ],
      "stateMutability": "view",
      "type": "function"
    },
    {
      "inputs": [
        {
          "internalType": "address",
          "name": "to",
          "type": "address"
        },
        {
          "internalType": "uint256",
          "name": "tokenId",
          "type": "uint256"
        }
      ],
      "name": "approve",
      "outputs": [],
      "stateMutability": "nonpayable",
      "type": "function"
    },
    {
      "inputs": [
        {
          "internalType": "address",
          "name": "owner",
          "type": "address"
        }
      ],
      "name": "balanceOf",
      "outputs": [
        {
          "internalType": "uint256",
          "name": "",
          "type": "uint256"
        }
      ],
      "stateMutability": "view",
      "type": "function"
    },
    {
      "inputs": [],
      "name": "contractURI",
      "outputs": [
        {
          "internalType": "string",
          "name": "",
          "type": "string"
        }
      ],
      "stateMutability": "view",
      "type": "function"
    },
    {
      "inputs": [
        {
          "internalType": "uint256",
          "name": "tokenId",
          "type": "uint256"
        }
      ],
      "name": "getApproved",
      "outputs": [
        {
          "internalType": "address",
          "name": "",
          "type": "address"
        }
      ],
      "stateMutability": "view",
      "type": "function"
    },
    {
      "inputs": [
        {
          "internalType": "address",
          "name": "owner",
          "type": "address"
        },
        {
          "internalType": "address",
          "name": "operator",
          "type": "address"
        }
      ],
      "name": "isApprovedForAll",
      "outputs": [
        {
          "internalType": "bool",
          "name": "",
          "type": "bool"
        }
      ],
      "stateMutability": "view",
      "type": "function"
    },
    {
      "inputs": [],
      "name": "name",
      "outputs": [
        {
          "internalType": "string",
          "name": "",
          "type": "string"
        }
      ],
      "stateMutability": "view",
      "type": "function"
    },
    {
      "inputs": [],
      "name": "owner",
      "outputs": [
        {
          "internalType": "address",
          "name": "",
          "type": "address"
        }
      ],
      "stateMutability": "view",
      "type": "function"
    },
    {
      "inputs": [
        {
          "internalType": "uint256",
          "name": "tokenId",
          "type": "uint256"
        }
      ],
      "name": "ownerOf",
      "outputs": [
        {
          "internalType": "address",
          "name": "",
          "type": "address"
        }
      ],
      "stateMutability": "view",
      "type": "function"
    },
    {
      "inputs": [],
      "name": "pause",
      "outputs": [],
      "stateMutability": "nonpayable",
      "type": "function"
    },
    {
      "inputs": [],
      "name": "paused",
      "outputs": [
        {
          "internalType": "bool",
          "name": "",
          "type": "bool"
        }
      ],
      "stateMutability": "view",
      "type": "function"
    },
    {
      "inputs": [],
      "name": "renounceOwnership",
      "outputs": [],
      "stateMutability": "nonpayable",
      "type": "function"
    },
    {
      "inputs": [],
      "name": "safeMint",
      "outputs": [],
      "stateMutability": "payable",
      "type": "function"
    },
    {
      "inputs": [
        {
          "internalType": "address",
          "name": "from",
          "type": "address"
        },
        {
          "internalType": "address",
          "name": "to",
          "type": "address"
        },
        {
          "internalType": "uint256",
          "name": "tokenId",
          "type": "uint256"
        }
      ],
      "name": "safeTransferFrom",
      "outputs": [],
      "stateMutability": "nonpayable",
      "type": "function"
    },
    {
      "inputs": [
        {
          "internalType": "address",
          "name": "from",
          "type": "address"
        },
        {
          "internalType": "address",
          "name": "to",
          "type": "address"
        },
        {
          "internalType": "uint256",
          "name": "tokenId",
          "type": "uint256"
        },
        {
          "internalType": "bytes",
          "name": "_data",
          "type": "bytes"
        }
      ],
      "name": "safeTransferFrom",
      "outputs": [],
      "stateMutability": "nonpayable",
      "type": "function"
    },
    {
      "inputs": [
        {
          "internalType": "address",
          "name": "operator",
          "type": "address"
        },
        {
          "internalType": "bool",
          "name": "approved",
          "type": "bool"
        }
      ],
      "name": "setApprovalForAll",
      "outputs": [],
      "stateMutability": "nonpayable",
      "type": "function"
    },
    {
      "inputs": [
        {
          "internalType": "string",
          "name": "uri",
          "type": "string"
        }
      ],
      "name": "setContractURI",
      "outputs": [],
      "stateMutability": "nonpayable",
      "type": "function"
    },
    {
      "inputs": [
        {
          "internalType": "string",
          "name": "uri",
          "type": "string"
        }
      ],
      "name": "setPlaceholderURI",
      "outputs": [],
      "stateMutability": "nonpayable",
      "type": "function"
    },
    {
      "inputs": [
        {
          "internalType": "uint256",
          "name": "length",
          "type": "uint256"
        }
      ],
      "name": "setRevealedLength",
      "outputs": [],
      "stateMutability": "nonpayable",
      "type": "function"
    },
    {
      "inputs": [
        {
          "internalType": "uint256[]",
          "name": "ids",
          "type": "uint256[]"
        },
        {
          "internalType": "string[]",
          "name": "uris",
          "type": "string[]"
        }
      ],
      "name": "setTokensURI",
      "outputs": [],
      "stateMutability": "nonpayable",
      "type": "function"
    },
    {
      "inputs": [
        {
          "internalType": "bytes4",
          "name": "interfaceId",
          "type": "bytes4"
        }
      ],
      "name": "supportsInterface",
      "outputs": [
        {
          "internalType": "bool",
          "name": "",
          "type": "bool"
        }
      ],
      "stateMutability": "view",
      "type": "function"
    },
    {
      "inputs": [],
      "name": "symbol",
      "outputs": [
        {
          "internalType": "string",
          "name": "",
          "type": "string"
        }
      ],
      "stateMutability": "view",
      "type": "function"
    },
    {
      "inputs": [
        {
          "internalType": "uint256",
          "name": "id",
          "type": "uint256"
        }
      ],
      "name": "tokenURI",
      "outputs": [
        {
          "internalType": "string",
          "name": "",
          "type": "string"
        }
      ],
      "stateMutability": "view",
      "type": "function"
    },
    {
      "inputs": [],
      "name": "totalSupply",
      "outputs": [
        {
          "internalType": "uint256",
          "name": "",
          "type": "uint256"
        }
      ],
      "stateMutability": "view",
      "type": "function"
    },
    {
      "inputs": [
        {
          "internalType": "address",
          "name": "from",
          "type": "address"
        },
        {
          "internalType": "address",
          "name": "to",
          "type": "address"
        },
        {
          "internalType": "uint256",
          "name": "tokenId",
          "type": "uint256"
        }
      ],
      "name": "transferFrom",
      "outputs": [],
      "stateMutability": "nonpayable",
      "type": "function"
    },
    {
      "inputs": [
        {
          "internalType": "address",
          "name": "newOwner",
          "type": "address"
        }
      ],
      "name": "transferOwnership",
      "outputs": [],
      "stateMutability": "nonpayable",
      "type": "function"
    },
    {
      "inputs": [],
      "name": "unpause",
      "outputs": [],
      "stateMutability": "nonpayable",
      "type": "function"
    },
    {
      "inputs": [],
      "name": "withdraw",
      "outputs": [],
      "stateMutability": "nonpayable",
      "type": "function"
    }
  ],
  "bytecode": {
    "linkReferences": {},
    "object": "600f600855600060095560e0604052602c6080818152906200255e60a03980516200003391600a916020909101906200015e565b506040518060600160405280602d815260200162002531602d913980516200006491600b916020909101906200015e565b503480156200007257600080fd5b506040516200258a3803806200258a8339810160408190526200009591620002bb565b815182908290620000ae9060009060208501906200015e565b508051620000c49060019060208401906200015e565b50506006805460ff1916905550620000dc33620000fb565b620000f360076200015560201b6200104e1760201c565b505062000378565b600680546001600160a01b03838116610100818102610100600160a81b031985161790945560405193909204169182907f8be0079c531659141344cd1fd0a4f28419497f9722a3daafe3b4186f6b6457e090600090a35050565b80546001019055565b8280546200016c9062000325565b90600052602060002090601f016020900481019282620001905760008555620001db565b82601f10620001ab57805160ff1916838001178555620001db565b82800160010185558215620001db579182015b82811115620001db578251825591602001919060010190620001be565b50620001e9929150620001ed565b5090565b5b80821115620001e95760008155600101620001ee565b600082601f8301126200021657600080fd5b81516001600160401b038082111562000233576200023362000362565b604051601f8301601f19908116603f011681019082821181831017156200025e576200025e62000362565b816040528381526020925086838588010111156200027b57600080fd5b600091505b838210156200029f578582018301518183018401529082019062000280565b83821115620002b15760008385830101525b9695505050505050565b60008060408385031215620002cf57600080fd5b82516001600160401b0380821115620002e757600080fd5b620002f58683870162000204565b935060208501519150808211156200030c57600080fd5b506200031b8582860162000204565b9150509250929050565b600181811c908216806200033a57607f821691505b602082108114156200035c57634e487b7160e01b600052602260045260246000fd5b50919050565b634e487b7160e01b600052604160045260246000fd5b6121a980620003886000396000f3fe6080604052600436106101d85760003560e01c80635c975abb1161010257806395d89b4111610095578063c87b56dd11610064578063c87b56dd146104f9578063e8a3d48514610519578063e985e9c51461052e578063f2fde38b1461057757600080fd5b806395d89b411461048f578063a22cb465146104a4578063b88d4fde146104c4578063c0e72740146104e457600080fd5b8063715018a6116100d1578063715018a6146104225780638456cb59146104375780638da5cb5b1461044c578063938e3d7b1461046f57600080fd5b80635c975abb146103c25780636352211e146103da5780636871ee40146103fa57806370a082311461040257600080fd5b80632cff168d1161017a5780633f4ba83a116101495780633f4ba83a1461036257806342842e0e14610377578063487c70fc14610397578063547eb5b6146103ad57600080fd5b80632cff168d146102ed5780633574a2dd1461030d5780633653956b1461032d5780633ccfd60b1461034d57600080fd5b8063081812fc116101b6578063081812fc1461025e578063095ea7b31461029657806318160ddd146102b857806323b872dd146102cd57600080fd5b806301ffc9a7146101dd5780630387da421461021257806306fdde031461023c575b600080fd5b3480156101e957600080fd5b506101fd6101f8366004611cae565b610597565b60405190151581526020015b60405180910390f35b34801561021e57600080fd5b5061022e67016345785d8a000081565b604051908152602001610209565b34801561024857600080fd5b506102516105e9565b6040516102099190611ed0565b34801561026a57600080fd5b5061027e610279366004611d5a565b61067b565b6040516001600160a01b039091168152602001610209565b3480156102a257600080fd5b506102b66102b1366004611c18565b610715565b005b3480156102c457600080fd5b5061022e61082b565b3480156102d957600080fd5b506102b66102e8366004611ac4565b61084a565b3480156102f957600080fd5b506102b6610308366004611d5a565b61087b565b34801561031957600080fd5b506102b6610328366004611ce8565b6108b0565b34801561033957600080fd5b506102b6610348366004611c42565b6108ec565b34801561035957600080fd5b506102b66109ec565b34801561036e57600080fd5b506102b6610a4f565b34801561038357600080fd5b506102b6610392366004611ac4565b610a89565b3480156103a357600080fd5b5061022e60085481565b3480156103b957600080fd5b50610251610aa4565b3480156103ce57600080fd5b5060065460ff166101fd565b3480156103e657600080fd5b5061027e6103f5366004611d5a565b610b32565b6102b6610ba9565b34801561040e57600080fd5b5061022e61041d366004611a6f565b610c80565b34801561042e57600080fd5b506102b6610d07565b34801561044357600080fd5b506102b6610d41565b34801561045857600080fd5b5060065461010090046001600160a01b031661027e565b34801561047b57600080fd5b506102b661048a366004611ce8565b610d79565b34801561049b57600080fd5b50610251610db5565b3480156104b057600080fd5b506102b66104bf366004611bdc565b610dc4565b3480156104d057600080fd5b506102b66104df366004611b00565b610dcf565b3480156104f057600080fd5b50610251610e07565b34801561050557600080fd5b50610251610514366004611d5a565b610e14565b34801561052557600080fd5b50610251610fa1565b34801561053a57600080fd5b506101fd610549366004611a91565b6001600160a01b03918216600090815260056020908152604080832093909416825291909152205460ff1690565b34801561058357600080fd5b506102b6610592366004611a6f565b610fb0565b60006001600160e01b031982166380ac58cd60e01b14806105c857506001600160e01b03198216635b5e139f60e01b145b806105e357506301ffc9a760e01b6001600160e01b03198316145b92915050565b6060600080546105f89061209b565b80601f01602080910402602001604051908101604052809291908181526020018280546106249061209b565b80156106715780601f1061064657610100808354040283529160200191610671565b820191906000526020600020905b81548152906001019060200180831161065457829003601f168201915b5050505050905090565b6000818152600260205260408120546001600160a01b03166106f95760405162461bcd60e51b815260206004820152602c60248201527f4552433732313a20617070726f76656420717565727920666f72206e6f6e657860448201526b34b9ba32b73a103a37b5b2b760a11b60648201526084015b60405180910390fd5b506000908152600460205260409020546001600160a01b031690565b600061072082610b32565b9050806001600160a01b0316836001600160a01b0316141561078e5760405162461bcd60e51b815260206004820152602160248201527f4552433732313a20617070726f76616c20746f2063757272656e74206f776e656044820152603960f91b60648201526084016106f0565b336001600160a01b03821614806107aa57506107aa8133610549565b61081c5760405162461bcd60e51b815260206004820152603860248201527f4552433732313a20617070726f76652063616c6c6572206973206e6f74206f7760448201527f6e6572206e6f7220617070726f76656420666f7220616c6c000000000000000060648201526084016106f0565b6108268383611057565b505050565b60008061083760075490565b9050610844600182612058565b91505090565b61085433826110c5565b6108705760405162461bcd60e51b81526004016106f090611f94565b6108268383836111bc565b6006546001600160a01b036101009091041633146108ab5760405162461bcd60e51b81526004016106f090611f5f565b600955565b6006546001600160a01b036101009091041633146108e05760405162461bcd60e51b81526004016106f090611f5f565b610826600a8383611973565b6006546001600160a01b0361010090910416331461091c5760405162461bcd60e51b81526004016106f090611f5f565b82811461096b5760405162461bcd60e51b815260206004820152601c60248201527f69647320616e642075726973206c656e677468206d69736d617463680000000060448201526064016106f0565b60005b838110156109e55782828281811061098857610988612131565b905060200281019061099a9190611fe5565b600c60008888868181106109b0576109b0612131565b90506020020135815260200190815260200160002091906109d2929190611973565b50806109dd816120d6565b91505061096e565b5050505050565b6006546001600160a01b03610100909104163314610a1c5760405162461bcd60e51b81526004016106f090611f5f565b6040514790339082156108fc029083906000818181858888f19350505050158015610a4b573d6000803e3d6000fd5b5050565b6006546001600160a01b03610100909104163314610a7f5760405162461bcd60e51b81526004016106f090611f5f565b610a87611363565b565b61082683838360405180602001604052806000815250610dcf565b600a8054610ab19061209b565b80601f0160208091040260200160405190810160405280929190818152602001828054610add9061209b565b8015610b2a5780601f10610aff57610100808354040283529160200191610b2a565b820191906000526020600020905b815481529060010190602001808311610b0d57829003601f168201915b505050505081565b6000818152600260205260408120546001600160a01b0316806105e35760405162461bcd60e51b815260206004820152602960248201527f4552433732313a206f776e657220717565727920666f72206e6f6e657869737460448201526832b73a103a37b5b2b760b91b60648201526084016106f0565b60065460ff1615610bcc5760405162461bcd60e51b81526004016106f090611f35565b6000610bd760075490565b90506008548110610c1c5760405162461bcd60e51b815260206004820152600f60248201526e151bdad95b9cc81cdbdb19081bdd5d608a1b60448201526064016106f0565b67016345785d8a0000341015610c655760405162461bcd60e51b815260206004820152600e60248201526d09cdee840cadcdeeaced0408aa8960931b60448201526064016106f0565b610c73600780546001019055565b610c7d33826113f6565b50565b60006001600160a01b038216610ceb5760405162461bcd60e51b815260206004820152602a60248201527f4552433732313a2062616c616e636520717565727920666f7220746865207a65604482015269726f206164647265737360b01b60648201526084016106f0565b506001600160a01b031660009081526003602052604090205490565b6006546001600160a01b03610100909104163314610d375760405162461bcd60e51b81526004016106f090611f5f565b610a876000611410565b6006546001600160a01b03610100909104163314610d715760405162461bcd60e51b81526004016106f090611f5f565b610a8761146a565b6006546001600160a01b03610100909104163314610da95760405162461bcd60e51b81526004016106f090611f5f565b610826600b8383611973565b6060600180546105f89061209b565b610a4b3383836114c2565b610dd933836110c5565b610df55760405162461bcd60e51b81526004016106f090611f94565b610e0184848484611591565b50505050565b600b8054610ab19061209b565b6000818152600260205260409020546060906001600160a01b0316610e735760405162461bcd60e51b8152602060048201526015602482015274546f6b656e20646f6573206e6f742065786973747360581b60448201526064016106f0565b600954821115610eaf57600a610e88836115c4565b604051602001610e99929190611e39565b6040516020818303038152906040529050919050565b6000828152600c602052604081208054610ec89061209b565b905011610eff57600a610eda836115c4565b604051602001610eeb929190611e5e565b6040516020818303038152906040526105e3565b6000828152600c602052604090208054610f189061209b565b80601f0160208091040260200160405190810160405280929190818152602001828054610f449061209b565b8015610f915780601f10610f6657610100808354040283529160200191610f91565b820191906000526020600020905b815481529060010190602001808311610f7457829003601f168201915b505050505092915050565b919050565b6060600b80546105f89061209b565b6006546001600160a01b03610100909104163314610fe05760405162461bcd60e51b81526004016106f090611f5f565b6001600160a01b0381166110455760405162461bcd60e51b815260206004820152602660248201527f4f776e61626c653a206e6577206f776e657220697320746865207a65726f206160448201526564647265737360d01b60648201526084016106f0565b610c7d81611410565b80546001019055565b600081815260046020526040902080546001600160a01b0319166001600160a01b038416908117909155819061108c82610b32565b6001600160a01b03167f8c5be1e5ebec7d5bd14f71427d1e84f3dd0314c0f7b2291e5b200ac8c7c3b92560405160405180910390a45050565b6000818152600260205260408120546001600160a01b031661113e5760405162461bcd60e51b815260206004820152602c60248201527f4552433732313a206f70657261746f7220717565727920666f72206e6f6e657860448201526b34b9ba32b73a103a37b5b2b760a11b60648201526084016106f0565b600061114983610b32565b9050806001600160a01b0316846001600160a01b031614806111845750836001600160a01b03166111798461067b565b6001600160a01b0316145b806111b457506001600160a01b0380821660009081526005602090815260408083209388168352929052205460ff165b949350505050565b826001600160a01b03166111cf82610b32565b6001600160a01b0316146112335760405162461bcd60e51b815260206004820152602560248201527f4552433732313a207472616e736665722066726f6d20696e636f72726563742060448201526437bbb732b960d91b60648201526084016106f0565b6001600160a01b0382166112955760405162461bcd60e51b8152602060048201526024808201527f4552433732313a207472616e7366657220746f20746865207a65726f206164646044820152637265737360e01b60648201526084016106f0565b6112a08383836116c2565b6112ab600082611057565b6001600160a01b03831660009081526003602052604081208054600192906112d4908490612058565b90915550506001600160a01b038216600090815260036020526040812080546001929061130290849061202c565b909155505060008181526002602052604080822080546001600160a01b0319166001600160a01b0386811691821790925591518493918716917fddf252ad1be2c89b69c2b068fc378daa952ba7f163c4a11628f55a4df523b3ef91a4505050565b60065460ff166113ac5760405162461bcd60e51b815260206004820152601460248201527314185d5cd8589b194e881b9bdd081c185d5cd95960621b60448201526064016106f0565b6006805460ff191690557f5db9ee0a495bf2e6ff9c91a7834c1ba4fdd244a5e8aa4e537bd38aeae4b073aa335b6040516001600160a01b03909116815260200160405180910390a1565b610a4b8282604051806020016040528060008152506116e5565b600680546001600160a01b03838116610100818102610100600160a81b031985161790945560405193909204169182907f8be0079c531659141344cd1fd0a4f28419497f9722a3daafe3b4186f6b6457e090600090a35050565b60065460ff161561148d5760405162461bcd60e51b81526004016106f090611f35565b6006805460ff191660011790557f62e78cea01bee320cd4e420270b5ea74000d11b0c9f74754ebdbfc544b05a2586113d93390565b816001600160a01b0316836001600160a01b031614156115245760405162461bcd60e51b815260206004820152601960248201527f4552433732313a20617070726f766520746f2063616c6c65720000000000000060448201526064016106f0565b6001600160a01b03838116600081815260056020908152604080832094871680845294825291829020805460ff191686151590811790915591519182527f17307eab39ab6107e8899845ad3d59bd9653f200f220920489ca2b5937696c31910160405180910390a3505050565b61159c8484846111bc565b6115a884848484611718565b610e015760405162461bcd60e51b81526004016106f090611ee3565b6060816115e85750506040805180820190915260018152600360fc1b602082015290565b8160005b811561161257806115fc816120d6565b915061160b9050600a83612044565b91506115ec565b60008167ffffffffffffffff81111561162d5761162d612147565b6040519080825280601f01601f191660200182016040528015611657576020820181803683370190505b5090505b84156111b45761166c600183612058565b9150611679600a866120f1565b61168490603061202c565b60f81b81838151811061169957611699612131565b60200101906001600160f81b031916908160001a9053506116bb600a86612044565b945061165b565b60065460ff16156108265760405162461bcd60e51b81526004016106f090611f35565b6116ef8383611825565b6116fc6000848484611718565b6108265760405162461bcd60e51b81526004016106f090611ee3565b60006001600160a01b0384163b1561181a57604051630a85bd0160e11b81526001600160a01b0385169063150b7a029061175c903390899088908890600401611e93565b602060405180830381600087803b15801561177657600080fd5b505af19250505080156117a6575060408051601f3d908101601f191682019092526117a391810190611ccb565b60015b611800573d8080156117d4576040519150601f19603f3d011682016040523d82523d6000602084013e6117d9565b606091505b5080516117f85760405162461bcd60e51b81526004016106f090611ee3565b805181602001fd5b6001600160e01b031916630a85bd0160e11b1490506111b4565b506001949350505050565b6001600160a01b03821661187b5760405162461bcd60e51b815260206004820181905260248201527f4552433732313a206d696e7420746f20746865207a65726f206164647265737360448201526064016106f0565b6000818152600260205260409020546001600160a01b0316156118e05760405162461bcd60e51b815260206004820152601c60248201527f4552433732313a20746f6b656e20616c7265616479206d696e7465640000000060448201526064016106f0565b6118ec600083836116c2565b6001600160a01b038216600090815260036020526040812080546001929061191590849061202c565b909155505060008181526002602052604080822080546001600160a01b0319166001600160a01b03861690811790915590518392907fddf252ad1be2c89b69c2b068fc378daa952ba7f163c4a11628f55a4df523b3ef908290a45050565b82805461197f9061209b565b90600052602060002090601f0160209004810192826119a157600085556119e7565b82601f106119ba5782800160ff198235161785556119e7565b828001600101855582156119e7579182015b828111156119e75782358255916020019190600101906119cc565b506119f39291506119f7565b5090565b5b808211156119f357600081556001016119f8565b80356001600160a01b0381168114610f9c57600080fd5b60008083601f840112611a3557600080fd5b50813567ffffffffffffffff811115611a4d57600080fd5b6020830191508360208260051b8501011115611a6857600080fd5b9250929050565b600060208284031215611a8157600080fd5b611a8a82611a0c565b9392505050565b60008060408385031215611aa457600080fd5b611aad83611a0c565b9150611abb60208401611a0c565b90509250929050565b600080600060608486031215611ad957600080fd5b611ae284611a0c565b9250611af060208501611a0c565b9150604084013590509250925092565b60008060008060808587031215611b1657600080fd5b611b1f85611a0c565b9350611b2d60208601611a0c565b925060408501359150606085013567ffffffffffffffff80821115611b5157600080fd5b818701915087601f830112611b6557600080fd5b813581811115611b7757611b77612147565b604051601f8201601f19908116603f01168101908382118183101715611b9f57611b9f612147565b816040528281528a6020848701011115611bb857600080fd5b82602086016020830137600060208483010152809550505050505092959194509250565b60008060408385031215611bef57600080fd5b611bf883611a0c565b915060208301358015158114611c0d57600080fd5b809150509250929050565b60008060408385031215611c2b57600080fd5b611c3483611a0c565b946020939093013593505050565b60008060008060408587031215611c5857600080fd5b843567ffffffffffffffff80821115611c7057600080fd5b611c7c88838901611a23565b90965094506020870135915080821115611c9557600080fd5b50611ca287828801611a23565b95989497509550505050565b600060208284031215611cc057600080fd5b8135611a8a8161215d565b600060208284031215611cdd57600080fd5b8151611a8a8161215d565b60008060208385031215611cfb57600080fd5b823567ffffffffffffffff80821115611d1357600080fd5b818501915085601f830112611d2757600080fd5b813581811115611d3657600080fd5b866020828501011115611d4857600080fd5b60209290920196919550909350505050565b600060208284031215611d6c57600080fd5b5035919050565b60008151808452611d8b81602086016020860161206f565b601f01601f19169290920160200192915050565b8054600090600181811c9080831680611db957607f831692505b6020808410821415611ddb57634e487b7160e01b600052602260045260246000fd5b818015611def5760018114611e0057611e2d565b60ff19861689528489019650611e2d565b60008881526020902060005b86811015611e255781548b820152908501908301611e0c565b505084890196505b50505050505092915050565b6000611e458285611d9f565b8351611e5581836020880161206f565b01949350505050565b6000611e6a8285611d9f565b8351611e7a81836020880161206f565b64173539b7b760d91b9101908152600501949350505050565b6001600160a01b0385811682528416602082015260408101839052608060608201819052600090611ec690830184611d73565b9695505050505050565b602081526000611a8a6020830184611d73565b60208082526032908201527f4552433732313a207472616e7366657220746f206e6f6e20455243373231526560408201527131b2b4bb32b91034b6b83632b6b2b73a32b960711b606082015260800190565b60208082526010908201526f14185d5cd8589b194e881c185d5cd95960821b604082015260600190565b6020808252818101527f4f776e61626c653a2063616c6c6572206973206e6f7420746865206f776e6572604082015260600190565b60208082526031908201527f4552433732313a207472616e736665722063616c6c6572206973206e6f74206f6040820152701ddb995c881b9bdc88185c1c1c9bdd9959607a1b606082015260800190565b6000808335601e19843603018112611ffc57600080fd5b83018035915067ffffffffffffffff82111561201757600080fd5b602001915036819003821315611a6857600080fd5b6000821982111561203f5761203f612105565b500190565b6000826120535761205361211b565b500490565b60008282101561206a5761206a612105565b500390565b60005b8381101561208a578181015183820152602001612072565b83811115610e015750506000910152565b600181811c908216806120af57607f821691505b602082108114156120d057634e487b7160e01b600052602260045260246000fd5b50919050565b60006000198214156120ea576120ea612105565b5060010190565b6000826121005761210061211b565b500690565b634e487b7160e01b600052601160045260246000fd5b634e487b7160e01b600052601260045260246000fd5b634e487b7160e01b600052603260045260246000fd5b634e487b7160e01b600052604160045260246000fd5b6001600160e01b031981168114610c7d57600080fdfea26469706673582212202fb4016996a14dd8010544a7289859c3bcfa2ead0df375e11d69f0bce3caba0664736f6c6343000807003368747470733a2f2f616e696d612e6c766c39392e69642f6d657461646174612f636f6e74726163742e6a736f6e68747470733a2f2f616e696d612e6c766c39392e69642f6d657461646174612f706c616365686f6c6465722f",
    "opcodes": "PUSH1 0xF PUSH1 0x8 SSTORE PUSH1 0x0 PUSH1 0x9 SSTORE PUSH1 0xE0 PUSH1 0x40 MSTORE PUSH1 0x2C PUSH1 0x80 DUP2 DUP2 MSTORE SWAP1 PUSH3 0x255E PUSH1 0xA0 CODECOPY DUP1 MLOAD PUSH3 0x33 SWAP2 PUSH1 0xA SWAP2 PUSH1 0x20 SWAP1 SWAP2 ADD SWAP1 PUSH3 0x15E JUMP JUMPDEST POP PUSH1 0x40 MLOAD DUP1 PUSH1 0x60 ADD PUSH1 0x40 MSTORE DUP1 PUSH1 0x2D DUP2 MSTORE PUSH1 0x20 ADD PUSH3 0x2531 PUSH1 0x2D SWAP2 CODECOPY DUP1 MLOAD PUSH3 0x64 SWAP2 PUSH1 0xB SWAP2 PUSH1 0x20 SWAP1 SWAP2 ADD SWAP1 PUSH3 0x15E JUMP JUMPDEST POP CALLVALUE DUP1 ISZERO PUSH3 0x72 JUMPI PUSH1 0x0 DUP1 REVERT JUMPDEST POP PUSH1 0x40 MLOAD PUSH3 0x258A CODESIZE SUB DUP1 PUSH3 0x258A DUP4 CODECOPY DUP2 ADD PUSH1 0x40 DUP2 SWAP1 MSTORE PUSH3 0x95 SWAP2 PUSH3 0x2BB JUMP JUMPDEST DUP2 MLOAD DUP3 SWAP1 DUP3 SWAP1 PUSH3 0xAE SWAP1 PUSH1 0x0 SWAP1 PUSH1 0x20 DUP6 ADD SWAP1 PUSH3 0x15E JUMP JUMPDEST POP DUP1 MLOAD PUSH3 0xC4 SWAP1 PUSH1 0x1 SWAP1 PUSH1 0x20 DUP5 ADD SWAP1 PUSH3 0x15E JUMP JUMPDEST POP POP PUSH1 0x6 DUP1 SLOAD PUSH1 0xFF NOT AND SWAP1 SSTORE POP PUSH3 0xDC CALLER PUSH3 0xFB JUMP JUMPDEST PUSH3 0xF3 PUSH1 0x7 PUSH3 0x155 PUSH1 0x20 SHL PUSH3 0x104E OR PUSH1 0x20 SHR JUMP JUMPDEST POP POP PUSH3 0x378 JUMP JUMPDEST PUSH1 0x6 DUP1 SLOAD PUSH1 0x1 PUSH1 0x1 PUSH1 0xA0 SHL SUB DUP4 DUP2 AND PUSH2 0x100 DUP2 DUP2 MUL PUSH2 0x100 PUSH1 0x1 PUSH1 0xA8 SHL SUB NOT DUP6 AND OR SWAP1 SWAP5 SSTORE PUSH1 0x40 MLOAD SWAP4 SWAP1 SWAP3 DIV AND SWAP2 DUP3 SWAP1 PUSH32 0x8BE0079C531659141344CD1FD0A4F28419497F9722A3DAAFE3B4186F6B6457E0 SWAP1 PUSH1 0x0 SWAP1 LOG3 POP POP JUMP JUMPDEST DUP1 SLOAD PUSH1 0x1 ADD SWAP1 SSTORE JUMP JUMPDEST DUP3 DUP1 SLOAD PUSH3 0x16C SWAP1 PUSH3 0x325 JUMP JUMPDEST SWAP1 PUSH1 0x0 MSTORE PUSH1 0x20 PUSH1 0x0 KECCAK256 SWAP1 PUSH1 0x1F ADD PUSH1 0x20 SWAP1 DIV DUP2 ADD SWAP3 DUP3 PUSH3 0x190 JUMPI PUSH1 0x0 DUP6 SSTORE PUSH3 0x1DB JUMP JUMPDEST DUP3 PUSH1 0x1F LT PUSH3 0x1AB JUMPI DUP1 MLOAD PUSH1 0xFF NOT AND DUP4 DUP1 ADD OR DUP6 SSTORE PUSH3 0x1DB JUMP JUMPDEST DUP3 DUP1 ADD PUSH1 0x1 ADD DUP6 SSTORE DUP3 ISZERO PUSH3 0x1DB JUMPI SWAP2 DUP3 ADD JUMPDEST DUP3 DUP2 GT ISZERO PUSH3 0x1DB JUMPI DUP3 MLOAD DUP3 SSTORE SWAP2 PUSH1 0x20 ADD SWAP2 SWAP1 PUSH1 0x1 ADD SWAP1 PUSH3 0x1BE JUMP JUMPDEST POP PUSH3 0x1E9 SWAP3 SWAP2 POP PUSH3 0x1ED JUMP JUMPDEST POP SWAP1 JUMP JUMPDEST JUMPDEST DUP1 DUP3 GT ISZERO PUSH3 0x1E9 JUMPI PUSH1 0x0 DUP2 SSTORE PUSH1 0x1 ADD PUSH3 0x1EE JUMP JUMPDEST PUSH1 0x0 DUP3 PUSH1 0x1F DUP4 ADD SLT PUSH3 0x216 JUMPI PUSH1 0x0 DUP1 REVERT JUMPDEST DUP2 MLOAD PUSH1 0x1 PUSH1 0x1 PUSH1 0x40 SHL SUB DUP1 DUP3 GT ISZERO PUSH3 0x233 JUMPI PUSH3 0x233 PUSH3 0x362 JUMP JUMPDEST PUSH1 0x40 MLOAD PUSH1 0x1F DUP4 ADD PUSH1 0x1F NOT SWAP1 DUP2 AND PUSH1 0x3F ADD AND DUP2 ADD SWAP1 DUP3 DUP3 GT DUP2 DUP4 LT OR ISZERO PUSH3 0x25E JUMPI PUSH3 0x25E PUSH3 0x362 JUMP JUMPDEST DUP2 PUSH1 0x40 MSTORE DUP4 DUP2 MSTORE PUSH1 0x20 SWAP3 POP DUP7 DUP4 DUP6 DUP9 ADD ADD GT ISZERO PUSH3 0x27B JUMPI PUSH1 0x0 DUP1 REVERT JUMPDEST PUSH1 0x0 SWAP2 POP JUMPDEST DUP4 DUP3 LT ISZERO PUSH3 0x29F JUMPI DUP6 DUP3 ADD DUP4 ADD MLOAD DUP2 DUP4 ADD DUP5 ADD MSTORE SWAP1 DUP3 ADD SWAP1 PUSH3 0x280 JUMP JUMPDEST DUP4 DUP3 GT ISZERO PUSH3 0x2B1 JUMPI PUSH1 0x0 DUP4 DUP6 DUP4 ADD ADD MSTORE JUMPDEST SWAP7 SWAP6 POP POP POP POP POP POP JUMP JUMPDEST PUSH1 0x0 DUP1 PUSH1 0x40 DUP4 DUP6 SUB SLT ISZERO PUSH3 0x2CF JUMPI PUSH1 0x0 DUP1 REVERT JUMPDEST DUP3 MLOAD PUSH1 0x1 PUSH1 0x1 PUSH1 0x40 SHL SUB DUP1 DUP3 GT ISZERO PUSH3 0x2E7 JUMPI PUSH1 0x0 DUP1 REVERT JUMPDEST PUSH3 0x2F5 DUP7 DUP4 DUP8 ADD PUSH3 0x204 JUMP JUMPDEST SWAP4 POP PUSH1 0x20 DUP6 ADD MLOAD SWAP2 POP DUP1 DUP3 GT ISZERO PUSH3 0x30C JUMPI PUSH1 0x0 DUP1 REVERT JUMPDEST POP PUSH3 0x31B DUP6 DUP3 DUP7 ADD PUSH3 0x204 JUMP JUMPDEST SWAP2 POP POP SWAP3 POP SWAP3 SWAP1 POP JUMP JUMPDEST PUSH1 0x1 DUP2 DUP2 SHR SWAP1 DUP3 AND DUP1 PUSH3 0x33A JUMPI PUSH1 0x7F DUP3 AND SWAP2 POP JUMPDEST PUSH1 0x20 DUP3 LT DUP2 EQ ISZERO PUSH3 0x35C JUMPI PUSH4 0x4E487B71 PUSH1 0xE0 SHL PUSH1 0x0 MSTORE PUSH1 0x22 PUSH1 0x4 MSTORE PUSH1 0x24 PUSH1 0x0 REVERT JUMPDEST POP SWAP2 SWAP1 POP JUMP JUMPDEST PUSH4 0x4E487B71 PUSH1 0xE0 SHL PUSH1 0x0 MSTORE PUSH1 0x41 PUSH1 0x4 MSTORE PUSH1 0x24 PUSH1 0x0 REVERT JUMPDEST PUSH2 0x21A9 DUP1 PUSH3 0x388 PUSH1 0x0 CODECOPY PUSH1 0x0 RETURN INVALID PUSH1 0x80 PUSH1 0x40 MSTORE PUSH1 0x4 CALLDATASIZE LT PUSH2 0x1D8 JUMPI PUSH1 0x0 CALLDATALOAD PUSH1 0xE0 SHR DUP1 PUSH4 0x5C975ABB GT PUSH2 0x102 JUMPI DUP1 PUSH4 0x95D89B41 GT PUSH2 0x95 JUMPI DUP1 PUSH4 0xC87B56DD GT PUSH2 0x64 JUMPI DUP1 PUSH4 0xC87B56DD EQ PUSH2 0x4F9 JUMPI DUP1 PUSH4 0xE8A3D485 EQ PUSH2 0x519 JUMPI DUP1 PUSH4 0xE985E9C5 EQ PUSH2 0x52E JUMPI DUP1 PUSH4 0xF2FDE38B EQ PUSH2 0x577 JUMPI PUSH1 0x0 DUP1 REVERT JUMPDEST DUP1 PUSH4 0x95D89B41 EQ PUSH2 0x48F JUMPI DUP1 PUSH4 0xA22CB465 EQ PUSH2 0x4A4 JUMPI DUP1 PUSH4 0xB88D4FDE EQ PUSH2 0x4C4 JUMPI DUP1 PUSH4 0xC0E72740 EQ PUSH2 0x4E4 JUMPI PUSH1 0x0 DUP1 REVERT JUMPDEST DUP1 PUSH4 0x715018A6 GT PUSH2 0xD1 JUMPI DUP1 PUSH4 0x715018A6 EQ PUSH2 0x422 JUMPI DUP1 PUSH4 0x8456CB59 EQ PUSH2 0x437 JUMPI DUP1 PUSH4 0x8DA5CB5B EQ PUSH2 0x44C JUMPI DUP1 PUSH4 0x938E3D7B EQ PUSH2 0x46F JUMPI PUSH1 0x0 DUP1 REVERT JUMPDEST DUP1 PUSH4 0x5C975ABB EQ PUSH2 0x3C2 JUMPI DUP1 PUSH4 0x6352211E EQ PUSH2 0x3DA JUMPI DUP1 PUSH4 0x6871EE40 EQ PUSH2 0x3FA JUMPI DUP1 PUSH4 0x70A08231 EQ PUSH2 0x402 JUMPI PUSH1 0x0 DUP1 REVERT JUMPDEST DUP1 PUSH4 0x2CFF168D GT PUSH2 0x17A JUMPI DUP1 PUSH4 0x3F4BA83A GT PUSH2 0x149 JUMPI DUP1 PUSH4 0x3F4BA83A EQ PUSH2 0x362 JUMPI DUP1 PUSH4 0x42842E0E EQ PUSH2 0x377 JUMPI DUP1 PUSH4 0x487C70FC EQ PUSH2 0x397 JUMPI DUP1 PUSH4 0x547EB5B6 EQ PUSH2 0x3AD JUMPI PUSH1 0x0 DUP1 REVERT JUMPDEST DUP1 PUSH4 0x2CFF168D EQ PUSH2 0x2ED JUMPI DUP1 PUSH4 0x3574A2DD EQ PUSH2 0x30D JUMPI DUP1 PUSH4 0x3653956B EQ PUSH2 0x32D JUMPI DUP1 PUSH4 0x3CCFD60B EQ PUSH2 0x34D JUMPI PUSH1 0x0 DUP1 REVERT JUMPDEST DUP1 PUSH4 0x81812FC GT PUSH2 0x1B6 JUMPI DUP1 PUSH4 0x81812FC EQ PUSH2 0x25E JUMPI DUP1 PUSH4 0x95EA7B3 EQ PUSH2 0x296 JUMPI DUP1 PUSH4 0x18160DDD EQ PUSH2 0x2B8 JUMPI DUP1 PUSH4 0x23B872DD EQ PUSH2 0x2CD JUMPI PUSH1 0x0 DUP1 REVERT JUMPDEST DUP1 PUSH4 0x1FFC9A7 EQ PUSH2 0x1DD JUMPI DUP1 PUSH4 0x387DA42 EQ PUSH2 0x212 JUMPI DUP1 PUSH4 0x6FDDE03 EQ PUSH2 0x23C JUMPI JUMPDEST PUSH1 0x0 DUP1 REVERT JUMPDEST CALLVALUE DUP1 ISZERO PUSH2 0x1E9 JUMPI PUSH1 0x0 DUP1 REVERT JUMPDEST POP PUSH2 0x1FD PUSH2 0x1F8 CALLDATASIZE PUSH1 0x4 PUSH2 0x1CAE JUMP JUMPDEST PUSH2 0x597 JUMP JUMPDEST PUSH1 0x40 MLOAD SWAP1 ISZERO ISZERO DUP2 MSTORE PUSH1 0x20 ADD JUMPDEST PUSH1 0x40 MLOAD DUP1 SWAP2 SUB SWAP1 RETURN JUMPDEST CALLVALUE DUP1 ISZERO PUSH2 0x21E JUMPI PUSH1 0x0 DUP1 REVERT JUMPDEST POP PUSH2 0x22E PUSH8 0x16345785D8A0000 DUP2 JUMP JUMPDEST PUSH1 0x40 MLOAD SWAP1 DUP2 MSTORE PUSH1 0x20 ADD PUSH2 0x209 JUMP JUMPDEST CALLVALUE DUP1 ISZERO PUSH2 0x248 JUMPI PUSH1 0x0 DUP1 REVERT JUMPDEST POP PUSH2 0x251 PUSH2 0x5E9 JUMP JUMPDEST PUSH1 0x40 MLOAD PUSH2 0x209 SWAP2 SWAP1 PUSH2 0x1ED0 JUMP JUMPDEST CALLVALUE DUP1 ISZERO PUSH2 0x26A JUMPI PUSH1 0x0 DUP1 REVERT JUMPDEST POP PUSH2 0x27E PUSH2 0x279 CALLDATASIZE PUSH1 0x4 PUSH2 0x1D5A JUMP JUMPDEST PUSH2 0x67B JUMP JUMPDEST PUSH1 0x40 MLOAD PUSH1 0x1 PUSH1 0x1 PUSH1 0xA0 SHL SUB SWAP1 SWAP2 AND DUP2 MSTORE PUSH1 0x20 ADD PUSH2 0x209 JUMP JUMPDEST CALLVALUE DUP1 ISZERO PUSH2 0x2A2 JUMPI PUSH1 0x0 DUP1 REVERT JUMPDEST POP PUSH2 0x2B6 PUSH2 0x2B1 CALLDATASIZE PUSH1 0x4 PUSH2 0x1C18 JUMP JUMPDEST PUSH2 0x715 JUMP JUMPDEST STOP JUMPDEST CALLVALUE DUP1 ISZERO PUSH2 0x2C4 JUMPI PUSH1 0x0 DUP1 REVERT JUMPDEST POP PUSH2 0x22E PUSH2 0x82B JUMP JUMPDEST CALLVALUE DUP1 ISZERO PUSH2 0x2D9 JUMPI PUSH1 0x0 DUP1 REVERT JUMPDEST POP PUSH2 0x2B6 PUSH2 0x2E8 CALLDATASIZE PUSH1 0x4 PUSH2 0x1AC4 JUMP JUMPDEST PUSH2 0x84A JUMP JUMPDEST CALLVALUE DUP1 ISZERO PUSH2 0x2F9 JUMPI PUSH1 0x0 DUP1 REVERT JUMPDEST POP PUSH2 0x2B6 PUSH2 0x308 CALLDATASIZE PUSH1 0x4 PUSH2 0x1D5A JUMP JUMPDEST PUSH2 0x87B JUMP JUMPDEST CALLVALUE DUP1 ISZERO PUSH2 0x319 JUMPI PUSH1 0x0 DUP1 REVERT JUMPDEST POP PUSH2 0x2B6 PUSH2 0x328 CALLDATASIZE PUSH1 0x4 PUSH2 0x1CE8 JUMP JUMPDEST PUSH2 0x8B0 JUMP JUMPDEST CALLVALUE DUP1 ISZERO PUSH2 0x339 JUMPI PUSH1 0x0 DUP1 REVERT JUMPDEST POP PUSH2 0x2B6 PUSH2 0x348 CALLDATASIZE PUSH1 0x4 PUSH2 0x1C42 JUMP JUMPDEST PUSH2 0x8EC JUMP JUMPDEST CALLVALUE DUP1 ISZERO PUSH2 0x359 JUMPI PUSH1 0x0 DUP1 REVERT JUMPDEST POP PUSH2 0x2B6 PUSH2 0x9EC JUMP JUMPDEST CALLVALUE DUP1 ISZERO PUSH2 0x36E JUMPI PUSH1 0x0 DUP1 REVERT JUMPDEST POP PUSH2 0x2B6 PUSH2 0xA4F JUMP JUMPDEST CALLVALUE DUP1 ISZERO PUSH2 0x383 JUMPI PUSH1 0x0 DUP1 REVERT JUMPDEST POP PUSH2 0x2B6 PUSH2 0x392 CALLDATASIZE PUSH1 0x4 PUSH2 0x1AC4 JUMP JUMPDEST PUSH2 0xA89 JUMP JUMPDEST CALLVALUE DUP1 ISZERO PUSH2 0x3A3 JUMPI PUSH1 0x0 DUP1 REVERT JUMPDEST POP PUSH2 0x22E PUSH1 0x8 SLOAD DUP2 JUMP JUMPDEST CALLVALUE DUP1 ISZERO PUSH2 0x3B9 JUMPI PUSH1 0x0 DUP1 REVERT JUMPDEST POP PUSH2 0x251 PUSH2 0xAA4 JUMP JUMPDEST CALLVALUE DUP1 ISZERO PUSH2 0x3CE JUMPI PUSH1 0x0 DUP1 REVERT JUMPDEST POP PUSH1 0x6 SLOAD PUSH1 0xFF AND PUSH2 0x1FD JUMP JUMPDEST CALLVALUE DUP1 ISZERO PUSH2 0x3E6 JUMPI PUSH1 0x0 DUP1 REVERT JUMPDEST POP PUSH2 0x27E PUSH2 0x3F5 CALLDATASIZE PUSH1 0x4 PUSH2 0x1D5A JUMP JUMPDEST PUSH2 0xB32 JUMP JUMPDEST PUSH2 0x2B6 PUSH2 0xBA9 JUMP JUMPDEST CALLVALUE DUP1 ISZERO PUSH2 0x40E JUMPI PUSH1 0x0 DUP1 REVERT JUMPDEST POP PUSH2 0x22E PUSH2 0x41D CALLDATASIZE PUSH1 0x4 PUSH2 0x1A6F JUMP JUMPDEST PUSH2 0xC80 JUMP JUMPDEST CALLVALUE DUP1 ISZERO PUSH2 0x42E JUMPI PUSH1 0x0 DUP1 REVERT JUMPDEST POP PUSH2 0x2B6 PUSH2 0xD07 JUMP JUMPDEST CALLVALUE DUP1 ISZERO PUSH2 0x443 JUMPI PUSH1 0x0 DUP1 REVERT JUMPDEST POP PUSH2 0x2B6 PUSH2 0xD41 JUMP JUMPDEST CALLVALUE DUP1 ISZERO PUSH2 0x458 JUMPI PUSH1 0x0 DUP1 REVERT JUMPDEST POP PUSH1 0x6 SLOAD PUSH2 0x100 SWAP1 DIV PUSH1 0x1 PUSH1 0x1 PUSH1 0xA0 SHL SUB AND PUSH2 0x27E JUMP JUMPDEST CALLVALUE DUP1 ISZERO PUSH2 0x47B JUMPI PUSH1 0x0 DUP1 REVERT JUMPDEST POP PUSH2 0x2B6 PUSH2 0x48A CALLDATASIZE PUSH1 0x4 PUSH2 0x1CE8 JUMP JUMPDEST PUSH2 0xD79 JUMP JUMPDEST CALLVALUE DUP1 ISZERO PUSH2 0x49B JUMPI PUSH1 0x0 DUP1 REVERT JUMPDEST POP PUSH2 0x251 PUSH2 0xDB5 JUMP JUMPDEST CALLVALUE DUP1 ISZERO PUSH2 0x4B0 JUMPI PUSH1 0x0 DUP1 REVERT JUMPDEST POP PUSH2 0x2B6 PUSH2 0x4BF CALLDATASIZE PUSH1 0x4 PUSH2 0x1BDC JUMP JUMPDEST PUSH2 0xDC4 JUMP JUMPDEST CALLVALUE DUP1 ISZERO PUSH2 0x4D0 JUMPI PUSH1 0x0 DUP1 REVERT JUMPDEST POP PUSH2 0x2B6 PUSH2 0x4DF CALLDATASIZE PUSH1 0x4 PUSH2 0x1B00 JUMP JUMPDEST PUSH2 0xDCF JUMP JUMPDEST CALLVALUE DUP1 ISZERO PUSH2 0x4F0 JUMPI PUSH1 0x0 DUP1 REVERT JUMPDEST POP PUSH2 0x251 PUSH2 0xE07 JUMP JUMPDEST CALLVALUE DUP1 ISZERO PUSH2 0x505 JUMPI PUSH1 0x0 DUP1 REVERT JUMPDEST POP PUSH2 0x251 PUSH2 0x514 CALLDATASIZE PUSH1 0x4 PUSH2 0x1D5A JUMP JUMPDEST PUSH2 0xE14 JUMP JUMPDEST CALLVALUE DUP1 ISZERO PUSH2 0x525 JUMPI PUSH1 0x0 DUP1 REVERT JUMPDEST POP PUSH2 0x251 PUSH2 0xFA1 JUMP JUMPDEST CALLVALUE DUP1 ISZERO PUSH2 0x53A JUMPI PUSH1 0x0 DUP1 REVERT JUMPDEST POP PUSH2 0x1FD PUSH2 0x549 CALLDATASIZE PUSH1 0x4 PUSH2 0x1A91 JUMP JUMPDEST PUSH1 0x1 PUSH1 0x1 PUSH1 0xA0 SHL SUB SWAP2 DUP3 AND PUSH1 0x0 SWAP1 DUP2 MSTORE PUSH1 0x5 PUSH1 0x20 SWAP1 DUP2 MSTORE PUSH1 0x40 DUP1 DUP4 KECCAK256 SWAP4 SWAP1 SWAP5 AND DUP3 MSTORE SWAP2 SWAP1 SWAP2 MSTORE KECCAK256 SLOAD PUSH1 0xFF AND SWAP1 JUMP JUMPDEST CALLVALUE DUP1 ISZERO PUSH2 0x583 JUMPI PUSH1 0x0 DUP1 REVERT JUMPDEST POP PUSH2 0x2B6 PUSH2 0x592 CALLDATASIZE PUSH1 0x4 PUSH2 0x1A6F JUMP JUMPDEST PUSH2 0xFB0 JUMP JUMPDEST PUSH1 0x0 PUSH1 0x1 PUSH1 0x1 PUSH1 0xE0 SHL SUB NOT DUP3 AND PUSH4 0x80AC58CD PUSH1 0xE0 SHL EQ DUP1 PUSH2 0x5C8 JUMPI POP PUSH1 0x1 PUSH1 0x1 PUSH1 0xE0 SHL SUB NOT DUP3 AND PUSH4 0x5B5E139F PUSH1 0xE0 SHL EQ JUMPDEST DUP1 PUSH2 0x5E3 JUMPI POP PUSH4 0x1FFC9A7 PUSH1 0xE0 SHL PUSH1 0x1 PUSH1 0x1 PUSH1 0xE0 SHL SUB NOT DUP4 AND EQ JUMPDEST SWAP3 SWAP2 POP POP JUMP JUMPDEST PUSH1 0x60 PUSH1 0x0 DUP1 SLOAD PUSH2 0x5F8 SWAP1 PUSH2 0x209B JUMP JUMPDEST DUP1 PUSH1 0x1F ADD PUSH1 0x20 DUP1 SWAP2 DIV MUL PUSH1 0x20 ADD PUSH1 0x40 MLOAD SWAP1 DUP2 ADD PUSH1 0x40 MSTORE DUP1 SWAP3 SWAP2 SWAP1 DUP2 DUP2 MSTORE PUSH1 0x20 ADD DUP3 DUP1 SLOAD PUSH2 0x624 SWAP1 PUSH2 0x209B JUMP JUMPDEST DUP1 ISZERO PUSH2 0x671 JUMPI DUP1 PUSH1 0x1F LT PUSH2 0x646 JUMPI PUSH2 0x100 DUP1 DUP4 SLOAD DIV MUL DUP4 MSTORE SWAP2 PUSH1 0x20 ADD SWAP2 PUSH2 0x671 JUMP JUMPDEST DUP3 ADD SWAP2 SWAP1 PUSH1 0x0 MSTORE PUSH1 0x20 PUSH1 0x0 KECCAK256 SWAP1 JUMPDEST DUP2 SLOAD DUP2 MSTORE SWAP1 PUSH1 0x1 ADD SWAP1 PUSH1 0x20 ADD DUP1 DUP4 GT PUSH2 0x654 JUMPI DUP3 SWAP1 SUB PUSH1 0x1F AND DUP3 ADD SWAP2 JUMPDEST POP POP POP POP POP SWAP1 POP SWAP1 JUMP JUMPDEST PUSH1 0x0 DUP2 DUP2 MSTORE PUSH1 0x2 PUSH1 0x20 MSTORE PUSH1 0x40 DUP2 KECCAK256 SLOAD PUSH1 0x1 PUSH1 0x1 PUSH1 0xA0 SHL SUB AND PUSH2 0x6F9 JUMPI PUSH1 0x40 MLOAD PUSH3 0x461BCD PUSH1 0xE5 SHL DUP2 MSTORE PUSH1 0x20 PUSH1 0x4 DUP3 ADD MSTORE PUSH1 0x2C PUSH1 0x24 DUP3 ADD MSTORE PUSH32 0x4552433732313A20617070726F76656420717565727920666F72206E6F6E6578 PUSH1 0x44 DUP3 ADD MSTORE PUSH12 0x34B9BA32B73A103A37B5B2B7 PUSH1 0xA1 SHL PUSH1 0x64 DUP3 ADD MSTORE PUSH1 0x84 ADD JUMPDEST PUSH1 0x40 MLOAD DUP1 SWAP2 SUB SWAP1 REVERT JUMPDEST POP PUSH1 0x0 SWAP1 DUP2 MSTORE PUSH1 0x4 PUSH1 0x20 MSTORE PUSH1 0x40 SWAP1 KECCAK256 SLOAD PUSH1 0x1 PUSH1 0x1 PUSH1 0xA0 SHL SUB AND SWAP1 JUMP JUMPDEST PUSH1 0x0 PUSH2 0x720 DUP3 PUSH2 0xB32 JUMP JUMPDEST SWAP1 POP DUP1 PUSH1 0x1 PUSH1 0x1 PUSH1 0xA0 SHL SUB AND DUP4 PUSH1 0x1 PUSH1 0x1 PUSH1 0xA0 SHL SUB AND EQ ISZERO PUSH2 0x78E JUMPI PUSH1 0x40 MLOAD PUSH3 0x461BCD PUSH1 0xE5 SHL DUP2 MSTORE PUSH1 0x20 PUSH1 0x4 DUP3 ADD MSTORE PUSH1 0x21 PUSH1 0x24 DUP3 ADD MSTORE PUSH32 0x4552433732313A20617070726F76616C20746F2063757272656E74206F776E65 PUSH1 0x44 DUP3 ADD MSTORE PUSH1 0x39 PUSH1 0xF9 SHL PUSH1 0x64 DUP3 ADD MSTORE PUSH1 0x84 ADD PUSH2 0x6F0 JUMP JUMPDEST CALLER PUSH1 0x1 PUSH1 0x1 PUSH1 0xA0 SHL SUB DUP3 AND EQ DUP1 PUSH2 0x7AA JUMPI POP PUSH2 0x7AA DUP2 CALLER PUSH2 0x549 JUMP JUMPDEST PUSH2 0x81C JUMPI PUSH1 0x40 MLOAD PUSH3 0x461BCD PUSH1 0xE5 SHL DUP2 MSTORE PUSH1 0x20 PUSH1 0x4 DUP3 ADD MSTORE PUSH1 0x38 PUSH1 0x24 DUP3 ADD MSTORE PUSH32 0x4552433732313A20617070726F76652063616C6C6572206973206E6F74206F77 PUSH1 0x44 DUP3 ADD MSTORE PUSH32 0x6E6572206E6F7220617070726F76656420666F7220616C6C0000000000000000 PUSH1 0x64 DUP3 ADD MSTORE PUSH1 0x84 ADD PUSH2 0x6F0 JUMP JUMPDEST PUSH2 0x826 DUP4 DUP4 PUSH2 0x1057 JUMP JUMPDEST POP POP POP JUMP JUMPDEST PUSH1 0x0 DUP1 PUSH2 0x837 PUSH1 0x7 SLOAD SWAP1 JUMP JUMPDEST SWAP1 POP PUSH2 0x844 PUSH1 0x1 DUP3 PUSH2 0x2058 JUMP JUMPDEST SWAP2 POP POP SWAP1 JUMP JUMPDEST PUSH2 0x854 CALLER DUP3 PUSH2 0x10C5 JUMP JUMPDEST PUSH2 0x870 JUMPI PUSH1 0x40 MLOAD PUSH3 0x461BCD PUSH1 0xE5 SHL DUP2 MSTORE PUSH1 0x4 ADD PUSH2 0x6F0 SWAP1 PUSH2 0x1F94 JUMP JUMPDEST PUSH2 0x826 DUP4 DUP4 DUP4 PUSH2 0x11BC JUMP JUMPDEST PUSH1 0x6 SLOAD PUSH1 0x1 PUSH1 0x1 PUSH1 0xA0 SHL SUB PUSH2 0x100 SWAP1 SWAP2 DIV AND CALLER EQ PUSH2 0x8AB JUMPI PUSH1 0x40 MLOAD PUSH3 0x461BCD PUSH1 0xE5 SHL DUP2 MSTORE PUSH1 0x4 ADD PUSH2 0x6F0 SWAP1 PUSH2 0x1F5F JUMP JUMPDEST PUSH1 0x9 SSTORE JUMP JUMPDEST PUSH1 0x6 SLOAD PUSH1 0x1 PUSH1 0x1 PUSH1 0xA0 SHL SUB PUSH2 0x100 SWAP1 SWAP2 DIV AND CALLER EQ PUSH2 0x8E0 JUMPI PUSH1 0x40 MLOAD PUSH3 0x461BCD PUSH1 0xE5 SHL DUP2 MSTORE PUSH1 0x4 ADD PUSH2 0x6F0 SWAP1 PUSH2 0x1F5F JUMP JUMPDEST PUSH2 0x826 PUSH1 0xA DUP4 DUP4 PUSH2 0x1973 JUMP JUMPDEST PUSH1 0x6 SLOAD PUSH1 0x1 PUSH1 0x1 PUSH1 0xA0 SHL SUB PUSH2 0x100 SWAP1 SWAP2 DIV AND CALLER EQ PUSH2 0x91C JUMPI PUSH1 0x40 MLOAD PUSH3 0x461BCD PUSH1 0xE5 SHL DUP2 MSTORE PUSH1 0x4 ADD PUSH2 0x6F0 SWAP1 PUSH2 0x1F5F JUMP JUMPDEST DUP3 DUP2 EQ PUSH2 0x96B JUMPI PUSH1 0x40 MLOAD PUSH3 0x461BCD PUSH1 0xE5 SHL DUP2 MSTORE PUSH1 0x20 PUSH1 0x4 DUP3 ADD MSTORE PUSH1 0x1C PUSH1 0x24 DUP3 ADD MSTORE PUSH32 0x69647320616E642075726973206C656E677468206D69736D6174636800000000 PUSH1 0x44 DUP3 ADD MSTORE PUSH1 0x64 ADD PUSH2 0x6F0 JUMP JUMPDEST PUSH1 0x0 JUMPDEST DUP4 DUP2 LT ISZERO PUSH2 0x9E5 JUMPI DUP3 DUP3 DUP3 DUP2 DUP2 LT PUSH2 0x988 JUMPI PUSH2 0x988 PUSH2 0x2131 JUMP JUMPDEST SWAP1 POP PUSH1 0x20 MUL DUP2 ADD SWAP1 PUSH2 0x99A SWAP2 SWAP1 PUSH2 0x1FE5 JUMP JUMPDEST PUSH1 0xC PUSH1 0x0 DUP9 DUP9 DUP7 DUP2 DUP2 LT PUSH2 0x9B0 JUMPI PUSH2 0x9B0 PUSH2 0x2131 JUMP JUMPDEST SWAP1 POP PUSH1 0x20 MUL ADD CALLDATALOAD DUP2 MSTORE PUSH1 0x20 ADD SWAP1 DUP2 MSTORE PUSH1 0x20 ADD PUSH1 0x0 KECCAK256 SWAP2 SWAP1 PUSH2 0x9D2 SWAP3 SWAP2 SWAP1 PUSH2 0x1973 JUMP JUMPDEST POP DUP1 PUSH2 0x9DD DUP2 PUSH2 0x20D6 JUMP JUMPDEST SWAP2 POP POP PUSH2 0x96E JUMP JUMPDEST POP POP POP POP POP JUMP JUMPDEST PUSH1 0x6 SLOAD PUSH1 0x1 PUSH1 0x1 PUSH1 0xA0 SHL SUB PUSH2 0x100 SWAP1 SWAP2 DIV AND CALLER EQ PUSH2 0xA1C JUMPI PUSH1 0x40 MLOAD PUSH3 0x461BCD PUSH1 0xE5 SHL DUP2 MSTORE PUSH1 0x4 ADD PUSH2 0x6F0 SWAP1 PUSH2 0x1F5F JUMP JUMPDEST PUSH1 0x40 MLOAD SELFBALANCE SWAP1 CALLER SWAP1 DUP3 ISZERO PUSH2 0x8FC MUL SWAP1 DUP4 SWAP1 PUSH1 0x0 DUP2 DUP2 DUP2 DUP6 DUP9 DUP9 CALL SWAP4 POP POP POP POP ISZERO DUP1 ISZERO PUSH2 0xA4B JUMPI RETURNDATASIZE PUSH1 0x0 DUP1 RETURNDATACOPY RETURNDATASIZE PUSH1 0x0 REVERT JUMPDEST POP POP JUMP JUMPDEST PUSH1 0x6 SLOAD PUSH1 0x1 PUSH1 0x1 PUSH1 0xA0 SHL SUB PUSH2 0x100 SWAP1 SWAP2 DIV AND CALLER EQ PUSH2 0xA7F JUMPI PUSH1 0x40 MLOAD PUSH3 0x461BCD PUSH1 0xE5 SHL DUP2 MSTORE PUSH1 0x4 ADD PUSH2 0x6F0 SWAP1 PUSH2 0x1F5F JUMP JUMPDEST PUSH2 0xA87 PUSH2 0x1363 JUMP JUMPDEST JUMP JUMPDEST PUSH2 0x826 DUP4 DUP4 DUP4 PUSH1 0x40 MLOAD DUP1 PUSH1 0x20 ADD PUSH1 0x40 MSTORE DUP1 PUSH1 0x0 DUP2 MSTORE POP PUSH2 0xDCF JUMP JUMPDEST PUSH1 0xA DUP1 SLOAD PUSH2 0xAB1 SWAP1 PUSH2 0x209B JUMP JUMPDEST DUP1 PUSH1 0x1F ADD PUSH1 0x20 DUP1 SWAP2 DIV MUL PUSH1 0x20 ADD PUSH1 0x40 MLOAD SWAP1 DUP2 ADD PUSH1 0x40 MSTORE DUP1 SWAP3 SWAP2 SWAP1 DUP2 DUP2 MSTORE PUSH1 0x20 ADD DUP3 DUP1 SLOAD PUSH2 0xADD SWAP1 PUSH2 0x209B JUMP JUMPDEST DUP1 ISZERO PUSH2 0xB2A JUMPI DUP1 PUSH1 0x1F LT PUSH2 0xAFF JUMPI PUSH2 0x100 DUP1 DUP4 SLOAD DIV MUL DUP4 MSTORE SWAP2 PUSH1 0x20 ADD SWAP2 PUSH2 0xB2A JUMP JUMPDEST DUP3 ADD SWAP2 SWAP1 PUSH1 0x0 MSTORE PUSH1 0x20 PUSH1 0x0 KECCAK256 SWAP1 JUMPDEST DUP2 SLOAD DUP2 MSTORE SWAP1 PUSH1 0x1 ADD SWAP1 PUSH1 0x20 ADD DUP1 DUP4 GT PUSH2 0xB0D JUMPI DUP3 SWAP1 SUB PUSH1 0x1F AND DUP3 ADD SWAP2 JUMPDEST POP POP POP POP POP DUP2 JUMP JUMPDEST PUSH1 0x0 DUP2 DUP2 MSTORE PUSH1 0x2 PUSH1 0x20 MSTORE PUSH1 0x40 DUP2 KECCAK256 SLOAD PUSH1 0x1 PUSH1 0x1 PUSH1 0xA0 SHL SUB AND DUP1 PUSH2 0x5E3 JUMPI PUSH1 0x40 MLOAD PUSH3 0x461BCD PUSH1 0xE5 SHL DUP2 MSTORE PUSH1 0x20 PUSH1 0x4 DUP3 ADD MSTORE PUSH1 0x29 PUSH1 0x24 DUP3 ADD MSTORE PUSH32 0x4552433732313A206F776E657220717565727920666F72206E6F6E6578697374 PUSH1 0x44 DUP3 ADD MSTORE PUSH9 0x32B73A103A37B5B2B7 PUSH1 0xB9 SHL PUSH1 0x64 DUP3 ADD MSTORE PUSH1 0x84 ADD PUSH2 0x6F0 JUMP JUMPDEST PUSH1 0x6 SLOAD PUSH1 0xFF AND ISZERO PUSH2 0xBCC JUMPI PUSH1 0x40 MLOAD PUSH3 0x461BCD PUSH1 0xE5 SHL DUP2 MSTORE PUSH1 0x4 ADD PUSH2 0x6F0 SWAP1 PUSH2 0x1F35 JUMP JUMPDEST PUSH1 0x0 PUSH2 0xBD7 PUSH1 0x7 SLOAD SWAP1 JUMP JUMPDEST SWAP1 POP PUSH1 0x8 SLOAD DUP2 LT PUSH2 0xC1C JUMPI PUSH1 0x40 MLOAD PUSH3 0x461BCD PUSH1 0xE5 SHL DUP2 MSTORE PUSH1 0x20 PUSH1 0x4 DUP3 ADD MSTORE PUSH1 0xF PUSH1 0x24 DUP3 ADD MSTORE PUSH15 0x151BDAD95B9CC81CDBDB19081BDD5D PUSH1 0x8A SHL PUSH1 0x44 DUP3 ADD MSTORE PUSH1 0x64 ADD PUSH2 0x6F0 JUMP JUMPDEST PUSH8 0x16345785D8A0000 CALLVALUE LT ISZERO PUSH2 0xC65 JUMPI PUSH1 0x40 MLOAD PUSH3 0x461BCD PUSH1 0xE5 SHL DUP2 MSTORE PUSH1 0x20 PUSH1 0x4 DUP3 ADD MSTORE PUSH1 0xE PUSH1 0x24 DUP3 ADD MSTORE PUSH14 0x9CDEE840CADCDEEACED0408AA89 PUSH1 0x93 SHL PUSH1 0x44 DUP3 ADD MSTORE PUSH1 0x64 ADD PUSH2 0x6F0 JUMP JUMPDEST PUSH2 0xC73 PUSH1 0x7 DUP1 SLOAD PUSH1 0x1 ADD SWAP1 SSTORE JUMP JUMPDEST PUSH2 0xC7D CALLER DUP3 PUSH2 0x13F6 JUMP JUMPDEST POP JUMP JUMPDEST PUSH1 0x0 PUSH1 0x1 PUSH1 0x1 PUSH1 0xA0 SHL SUB DUP3 AND PUSH2 0xCEB JUMPI PUSH1 0x40 MLOAD PUSH3 0x461BCD PUSH1 0xE5 SHL DUP2 MSTORE PUSH1 0x20 PUSH1 0x4 DUP3 ADD MSTORE PUSH1 0x2A PUSH1 0x24 DUP3 ADD MSTORE PUSH32 0x4552433732313A2062616C616E636520717565727920666F7220746865207A65 PUSH1 0x44 DUP3 ADD MSTORE PUSH10 0x726F2061646472657373 PUSH1 0xB0 SHL PUSH1 0x64 DUP3 ADD MSTORE PUSH1 0x84 ADD PUSH2 0x6F0 JUMP JUMPDEST POP PUSH1 0x1 PUSH1 0x1 PUSH1 0xA0 SHL SUB AND PUSH1 0x0 SWAP1 DUP2 MSTORE PUSH1 0x3 PUSH1 0x20 MSTORE PUSH1 0x40 SWAP1 KECCAK256 SLOAD SWAP1 JUMP JUMPDEST PUSH1 0x6 SLOAD PUSH1 0x1 PUSH1 0x1 PUSH1 0xA0 SHL SUB PUSH2 0x100 SWAP1 SWAP2 DIV AND CALLER EQ PUSH2 0xD37 JUMPI PUSH1 0x40 MLOAD PUSH3 0x461BCD PUSH1 0xE5 SHL DUP2 MSTORE PUSH1 0x4 ADD PUSH2 0x6F0 SWAP1 PUSH2 0x1F5F JUMP JUMPDEST PUSH2 0xA87 PUSH1 0x0 PUSH2 0x1410 JUMP JUMPDEST PUSH1 0x6 SLOAD PUSH1 0x1 PUSH1 0x1 PUSH1 0xA0 SHL SUB PUSH2 0x100 SWAP1 SWAP2 DIV AND CALLER EQ PUSH2 0xD71 JUMPI PUSH1 0x40 MLOAD PUSH3 0x461BCD PUSH1 0xE5 SHL DUP2 MSTORE PUSH1 0x4 ADD PUSH2 0x6F0 SWAP1 PUSH2 0x1F5F JUMP JUMPDEST PUSH2 0xA87 PUSH2 0x146A JUMP JUMPDEST PUSH1 0x6 SLOAD PUSH1 0x1 PUSH1 0x1 PUSH1 0xA0 SHL SUB PUSH2 0x100 SWAP1 SWAP2 DIV AND CALLER EQ PUSH2 0xDA9 JUMPI PUSH1 0x40 MLOAD PUSH3 0x461BCD PUSH1 0xE5 SHL DUP2 MSTORE PUSH1 0x4 ADD PUSH2 0x6F0 SWAP1 PUSH2 0x1F5F JUMP JUMPDEST PUSH2 0x826 PUSH1 0xB DUP4 DUP4 PUSH2 0x1973 JUMP JUMPDEST PUSH1 0x60 PUSH1 0x1 DUP1 SLOAD PUSH2 0x5F8 SWAP1 PUSH2 0x209B JUMP JUMPDEST PUSH2 0xA4B CALLER DUP4 DUP4 PUSH2 0x14C2 JUMP JUMPDEST PUSH2 0xDD9 CALLER DUP4 PUSH2 0x10C5 JUMP JUMPDEST PUSH2 0xDF5 JUMPI PUSH1 0x40 MLOAD PUSH3 0x461BCD PUSH1 0xE5 SHL DUP2 MSTORE PUSH1 0x4 ADD PUSH2 0x6F0 SWAP1 PUSH2 0x1F94 JUMP JUMPDEST PUSH2 0xE01 DUP5 DUP5 DUP5 DUP5 PUSH2 0x1591 JUMP JUMPDEST POP POP POP POP JUMP JUMPDEST PUSH1 0xB DUP1 SLOAD PUSH2 0xAB1 SWAP1 PUSH2 0x209B JUMP JUMPDEST PUSH1 0x0 DUP2 DUP2 MSTORE PUSH1 0x2 PUSH1 0x20 MSTORE PUSH1 0x40 SWAP1 KECCAK256 SLOAD PUSH1 0x60 SWAP1 PUSH1 0x1 PUSH1 0x1 PUSH1 0xA0 SHL SUB AND PUSH2 0xE73 JUMPI PUSH1 0x40 MLOAD PUSH3 0x461BCD PUSH1 0xE5 SHL DUP2 MSTORE PUSH1 0x20 PUSH1 0x4 DUP3 ADD MSTORE PUSH1 0x15 PUSH1 0x24 DUP3 ADD MSTORE PUSH21 0x546F6B656E20646F6573206E6F7420657869737473 PUSH1 0x58 SHL PUSH1 0x44 DUP3 ADD MSTORE PUSH1 0x64 ADD PUSH2 0x6F0 JUMP JUMPDEST PUSH1 0x9 SLOAD DUP3 GT ISZERO PUSH2 0xEAF JUMPI PUSH1 0xA PUSH2 0xE88 DUP4 PUSH2 0x15C4 JUMP JUMPDEST PUSH1 0x40 MLOAD PUSH1 0x20 ADD PUSH2 0xE99 SWAP3 SWAP2 SWAP1 PUSH2 0x1E39 JUMP JUMPDEST PUSH1 0x40 MLOAD PUSH1 0x20 DUP2 DUP4 SUB SUB DUP2 MSTORE SWAP1 PUSH1 0x40 MSTORE SWAP1 POP SWAP2 SWAP1 POP JUMP JUMPDEST PUSH1 0x0 DUP3 DUP2 MSTORE PUSH1 0xC PUSH1 0x20 MSTORE PUSH1 0x40 DUP2 KECCAK256 DUP1 SLOAD PUSH2 0xEC8 SWAP1 PUSH2 0x209B JUMP JUMPDEST SWAP1 POP GT PUSH2 0xEFF JUMPI PUSH1 0xA PUSH2 0xEDA DUP4 PUSH2 0x15C4 JUMP JUMPDEST PUSH1 0x40 MLOAD PUSH1 0x20 ADD PUSH2 0xEEB SWAP3 SWAP2 SWAP1 PUSH2 0x1E5E JUMP JUMPDEST PUSH1 0x40 MLOAD PUSH1 0x20 DUP2 DUP4 SUB SUB DUP2 MSTORE SWAP1 PUSH1 0x40 MSTORE PUSH2 0x5E3 JUMP JUMPDEST PUSH1 0x0 DUP3 DUP2 MSTORE PUSH1 0xC PUSH1 0x20 MSTORE PUSH1 0x40 SWAP1 KECCAK256 DUP1 SLOAD PUSH2 0xF18 SWAP1 PUSH2 0x209B JUMP JUMPDEST DUP1 PUSH1 0x1F ADD PUSH1 0x20 DUP1 SWAP2 DIV MUL PUSH1 0x20 ADD PUSH1 0x40 MLOAD SWAP1 DUP2 ADD PUSH1 0x40 MSTORE DUP1 SWAP3 SWAP2 SWAP1 DUP2 DUP2 MSTORE PUSH1 0x20 ADD DUP3 DUP1 SLOAD PUSH2 0xF44 SWAP1 PUSH2 0x209B JUMP JUMPDEST DUP1 ISZERO PUSH2 0xF91 JUMPI DUP1 PUSH1 0x1F LT PUSH2 0xF66 JUMPI PUSH2 0x100 DUP1 DUP4 SLOAD DIV MUL DUP4 MSTORE SWAP2 PUSH1 0x20 ADD SWAP2 PUSH2 0xF91 JUMP JUMPDEST DUP3 ADD SWAP2 SWAP1 PUSH1 0x0 MSTORE PUSH1 0x20 PUSH1 0x0 KECCAK256 SWAP1 JUMPDEST DUP2 SLOAD DUP2 MSTORE SWAP1 PUSH1 0x1 ADD SWAP1 PUSH1 0x20 ADD DUP1 DUP4 GT PUSH2 0xF74 JUMPI DUP3 SWAP1 SUB PUSH1 0x1F AND DUP3 ADD SWAP2 JUMPDEST POP POP POP POP POP SWAP3 SWAP2 POP POP JUMP JUMPDEST SWAP2 SWAP1 POP JUMP JUMPDEST PUSH1 0x60 PUSH1 0xB DUP1 SLOAD PUSH2 0x5F8 SWAP1 PUSH2 0x209B JUMP JUMPDEST PUSH1 0x6 SLOAD PUSH1 0x1 PUSH1 0x1 PUSH1 0xA0 SHL SUB PUSH2 0x100 SWAP1 SWAP2 DIV AND CALLER EQ PUSH2 0xFE0 JUMPI PUSH1 0x40 MLOAD PUSH3 0x461BCD PUSH1 0xE5 SHL DUP2 MSTORE PUSH1 0x4 ADD PUSH2 0x6F0 SWAP1 PUSH2 0x1F5F JUMP JUMPDEST PUSH1 0x1 PUSH1 0x1 PUSH1 0xA0 SHL SUB DUP2 AND PUSH2 0x1045 JUMPI PUSH1 0x40 MLOAD PUSH3 0x461BCD PUSH1 0xE5 SHL DUP2 MSTORE PUSH1 0x20 PUSH1 0x4 DUP3 ADD MSTORE PUSH1 0x26 PUSH1 0x24 DUP3 ADD MSTORE PUSH32 0x4F776E61626C653A206E6577206F776E657220697320746865207A65726F2061 PUSH1 0x44 DUP3 ADD MSTORE PUSH6 0x646472657373 PUSH1 0xD0 SHL PUSH1 0x64 DUP3 ADD MSTORE PUSH1 0x84 ADD PUSH2 0x6F0 JUMP JUMPDEST PUSH2 0xC7D DUP2 PUSH2 0x1410 JUMP JUMPDEST DUP1 SLOAD PUSH1 0x1 ADD SWAP1 SSTORE JUMP JUMPDEST PUSH1 0x0 DUP2 DUP2 MSTORE PUSH1 0x4 PUSH1 0x20 MSTORE PUSH1 0x40 SWAP1 KECCAK256 DUP1 SLOAD PUSH1 0x1 PUSH1 0x1 PUSH1 0xA0 SHL SUB NOT AND PUSH1 0x1 PUSH1 0x1 PUSH1 0xA0 SHL SUB DUP5 AND SWAP1 DUP2 OR SWAP1 SWAP2 SSTORE DUP2 SWAP1 PUSH2 0x108C DUP3 PUSH2 0xB32 JUMP JUMPDEST PUSH1 0x1 PUSH1 0x1 PUSH1 0xA0 SHL SUB AND PUSH32 0x8C5BE1E5EBEC7D5BD14F71427D1E84F3DD0314C0F7B2291E5B200AC8C7C3B925 PUSH1 0x40 MLOAD PUSH1 0x40 MLOAD DUP1 SWAP2 SUB SWAP1 LOG4 POP POP JUMP JUMPDEST PUSH1 0x0 DUP2 DUP2 MSTORE PUSH1 0x2 PUSH1 0x20 MSTORE PUSH1 0x40 DUP2 KECCAK256 SLOAD PUSH1 0x1 PUSH1 0x1 PUSH1 0xA0 SHL SUB AND PUSH2 0x113E JUMPI PUSH1 0x40 MLOAD PUSH3 0x461BCD PUSH1 0xE5 SHL DUP2 MSTORE PUSH1 0x20 PUSH1 0x4 DUP3 ADD MSTORE PUSH1 0x2C PUSH1 0x24 DUP3 ADD MSTORE PUSH32 0x4552433732313A206F70657261746F7220717565727920666F72206E6F6E6578 PUSH1 0x44 DUP3 ADD MSTORE PUSH12 0x34B9BA32B73A103A37B5B2B7 PUSH1 0xA1 SHL PUSH1 0x64 DUP3 ADD MSTORE PUSH1 0x84 ADD PUSH2 0x6F0 JUMP JUMPDEST PUSH1 0x0 PUSH2 0x1149 DUP4 PUSH2 0xB32 JUMP JUMPDEST SWAP1 POP DUP1 PUSH1 0x1 PUSH1 0x1 PUSH1 0xA0 SHL SUB AND DUP5 PUSH1 0x1 PUSH1 0x1 PUSH1 0xA0 SHL SUB AND EQ DUP1 PUSH2 0x1184 JUMPI POP DUP4 PUSH1 0x1 PUSH1 0x1 PUSH1 0xA0 SHL SUB AND PUSH2 0x1179 DUP5 PUSH2 0x67B JUMP JUMPDEST PUSH1 0x1 PUSH1 0x1 PUSH1 0xA0 SHL SUB AND EQ JUMPDEST DUP1 PUSH2 0x11B4 JUMPI POP PUSH1 0x1 PUSH1 0x1 PUSH1 0xA0 SHL SUB DUP1 DUP3 AND PUSH1 0x0 SWAP1 DUP2 MSTORE PUSH1 0x5 PUSH1 0x20 SWAP1 DUP2 MSTORE PUSH1 0x40 DUP1 DUP4 KECCAK256 SWAP4 DUP9 AND DUP4 MSTORE SWAP3 SWAP1 MSTORE KECCAK256 SLOAD PUSH1 0xFF AND JUMPDEST SWAP5 SWAP4 POP POP POP POP JUMP JUMPDEST DUP3 PUSH1 0x1 PUSH1 0x1 PUSH1 0xA0 SHL SUB AND PUSH2 0x11CF DUP3 PUSH2 0xB32 JUMP JUMPDEST PUSH1 0x1 PUSH1 0x1 PUSH1 0xA0 SHL SUB AND EQ PUSH2 0x1233 JUMPI PUSH1 0x40 MLOAD PUSH3 0x461BCD PUSH1 0xE5 SHL DUP2 MSTORE PUSH1 0x20 PUSH1 0x4 DUP3 ADD MSTORE PUSH1 0x25 PUSH1 0x24 DUP3 ADD MSTORE PUSH32 0x4552433732313A207472616E736665722066726F6D20696E636F727265637420 PUSH1 0x44 DUP3 ADD MSTORE PUSH5 0x37BBB732B9 PUSH1 0xD9 SHL PUSH1 0x64 DUP3 ADD MSTORE PUSH1 0x84 ADD PUSH2 0x6F0 JUMP JUMPDEST PUSH1 0x1 PUSH1 0x1 PUSH1 0xA0 SHL SUB DUP3 AND PUSH2 0x1295 JUMPI PUSH1 0x40 MLOAD PUSH3 0x461BCD PUSH1 0xE5 SHL DUP2 MSTORE PUSH1 0x20 PUSH1 0x4 DUP3 ADD MSTORE PUSH1 0x24 DUP1 DUP3 ADD MSTORE PUSH32 0x4552433732313A207472616E7366657220746F20746865207A65726F20616464 PUSH1 0x44 DUP3 ADD MSTORE PUSH4 0x72657373 PUSH1 0xE0 SHL PUSH1 0x64 DUP3 ADD MSTORE PUSH1 0x84 ADD PUSH2 0x6F0 JUMP JUMPDEST PUSH2 0x12A0 DUP4 DUP4 DUP4 PUSH2 0x16C2 JUMP JUMPDEST PUSH2 0x12AB PUSH1 0x0 DUP3 PUSH2 0x1057 JUMP JUMPDEST PUSH1 0x1 PUSH1 0x1 PUSH1 0xA0 SHL SUB DUP4 AND PUSH1 0x0 SWAP1 DUP2 MSTORE PUSH1 0x3 PUSH1 0x20 MSTORE PUSH1 0x40 DUP2 KECCAK256 DUP1 SLOAD PUSH1 0x1 SWAP3 SWAP1 PUSH2 0x12D4 SWAP1 DUP5 SWAP1 PUSH2 0x2058 JUMP JUMPDEST SWAP1 SWAP2 SSTORE POP POP PUSH1 0x1 PUSH1 0x1 PUSH1 0xA0 SHL SUB DUP3 AND PUSH1 0x0 SWAP1 DUP2 MSTORE PUSH1 0x3 PUSH1 0x20 MSTORE PUSH1 0x40 DUP2 KECCAK256 DUP1 SLOAD PUSH1 0x1 SWAP3 SWAP1 PUSH2 0x1302 SWAP1 DUP5 SWAP1 PUSH2 0x202C JUMP JUMPDEST SWAP1 SWAP2 SSTORE POP POP PUSH1 0x0 DUP2 DUP2 MSTORE PUSH1 0x2 PUSH1 0x20 MSTORE PUSH1 0x40 DUP1 DUP3 KECCAK256 DUP1 SLOAD PUSH1 0x1 PUSH1 0x1 PUSH1 0xA0 SHL SUB NOT AND PUSH1 0x1 PUSH1 0x1 PUSH1 0xA0 SHL SUB DUP7 DUP2 AND SWAP2 DUP3 OR SWAP1 SWAP3 SSTORE SWAP2 MLOAD DUP5 SWAP4 SWAP2 DUP8 AND SWAP2 PUSH32 0xDDF252AD1BE2C89B69C2B068FC378DAA952BA7F163C4A11628F55A4DF523B3EF SWAP2 LOG4 POP POP POP JUMP JUMPDEST PUSH1 0x6 SLOAD PUSH1 0xFF AND PUSH2 0x13AC JUMPI PUSH1 0x40 MLOAD PUSH3 0x461BCD PUSH1 0xE5 SHL DUP2 MSTORE PUSH1 0x20 PUSH1 0x4 DUP3 ADD MSTORE PUSH1 0x14 PUSH1 0x24 DUP3 ADD MSTORE PUSH20 0x14185D5CD8589B194E881B9BDD081C185D5CD959 PUSH1 0x62 SHL PUSH1 0x44 DUP3 ADD MSTORE PUSH1 0x64 ADD PUSH2 0x6F0 JUMP JUMPDEST PUSH1 0x6 DUP1 SLOAD PUSH1 0xFF NOT AND SWAP1 SSTORE PUSH32 0x5DB9EE0A495BF2E6FF9C91A7834C1BA4FDD244A5E8AA4E537BD38AEAE4B073AA CALLER JUMPDEST PUSH1 0x40 MLOAD PUSH1 0x1 PUSH1 0x1 PUSH1 0xA0 SHL SUB SWAP1 SWAP2 AND DUP2 MSTORE PUSH1 0x20 ADD PUSH1 0x40 MLOAD DUP1 SWAP2 SUB SWAP1 LOG1 JUMP JUMPDEST PUSH2 0xA4B DUP3 DUP3 PUSH1 0x40 MLOAD DUP1 PUSH1 0x20 ADD PUSH1 0x40 MSTORE DUP1 PUSH1 0x0 DUP2 MSTORE POP PUSH2 0x16E5 JUMP JUMPDEST PUSH1 0x6 DUP1 SLOAD PUSH1 0x1 PUSH1 0x1 PUSH1 0xA0 SHL SUB DUP4 DUP2 AND PUSH2 0x100 DUP2 DUP2 MUL PUSH2 0x100 PUSH1 0x1 PUSH1 0xA8 SHL SUB NOT DUP6 AND OR SWAP1 SWAP5 SSTORE PUSH1 0x40 MLOAD SWAP4 SWAP1 SWAP3 DIV AND SWAP2 DUP3 SWAP1 PUSH32 0x8BE0079C531659141344CD1FD0A4F28419497F9722A3DAAFE3B4186F6B6457E0 SWAP1 PUSH1 0x0 SWAP1 LOG3 POP POP JUMP JUMPDEST PUSH1 0x6 SLOAD PUSH1 0xFF AND ISZERO PUSH2 0x148D JUMPI PUSH1 0x40 MLOAD PUSH3 0x461BCD PUSH1 0xE5 SHL DUP2 MSTORE PUSH1 0x4 ADD PUSH2 0x6F0 SWAP1 PUSH2 0x1F35 JUMP JUMPDEST PUSH1 0x6 DUP1 SLOAD PUSH1 0xFF NOT AND PUSH1 0x1 OR SWAP1 SSTORE PUSH32 0x62E78CEA01BEE320CD4E420270B5EA74000D11B0C9F74754EBDBFC544B05A258 PUSH2 0x13D9 CALLER SWAP1 JUMP JUMPDEST DUP2 PUSH1 0x1 PUSH1 0x1 PUSH1 0xA0 SHL SUB AND DUP4 PUSH1 0x1 PUSH1 0x1 PUSH1 0xA0 SHL SUB AND EQ ISZERO PUSH2 0x1524 JUMPI PUSH1 0x40 MLOAD PUSH3 0x461BCD PUSH1 0xE5 SHL DUP2 MSTORE PUSH1 0x20 PUSH1 0x4 DUP3 ADD MSTORE PUSH1 0x19 PUSH1 0x24 DUP3 ADD MSTORE PUSH32 0x4552433732313A20617070726F766520746F2063616C6C657200000000000000 PUSH1 0x44 DUP3 ADD MSTORE PUSH1 0x64 ADD PUSH2 0x6F0 JUMP JUMPDEST PUSH1 0x1 PUSH1 0x1 PUSH1 0xA0 SHL SUB DUP4 DUP2 AND PUSH1 0x0 DUP2 DUP2 MSTORE PUSH1 0x5 PUSH1 0x20 SWAP1 DUP2 MSTORE PUSH1 0x40 DUP1 DUP4 KECCAK256 SWAP5 DUP8 AND DUP1 DUP5 MSTORE SWAP5 DUP3 MSTORE SWAP2 DUP3 SWAP1 KECCAK256 DUP1 SLOAD PUSH1 0xFF NOT AND DUP7 ISZERO ISZERO SWAP1 DUP2 OR SWAP1 SWAP2 SSTORE SWAP2 MLOAD SWAP2 DUP3 MSTORE PUSH32 0x17307EAB39AB6107E8899845AD3D59BD9653F200F220920489CA2B5937696C31 SWAP2 ADD PUSH1 0x40 MLOAD DUP1 SWAP2 SUB SWAP1 LOG3 POP POP POP JUMP JUMPDEST PUSH2 0x159C DUP5 DUP5 DUP5 PUSH2 0x11BC JUMP JUMPDEST PUSH2 0x15A8 DUP5 DUP5 DUP5 DUP5 PUSH2 0x1718 JUMP JUMPDEST PUSH2 0xE01 JUMPI PUSH1 0x40 MLOAD PUSH3 0x461BCD PUSH1 0xE5 SHL DUP2 MSTORE PUSH1 0x4 ADD PUSH2 0x6F0 SWAP1 PUSH2 0x1EE3 JUMP JUMPDEST PUSH1 0x60 DUP2 PUSH2 0x15E8 JUMPI POP POP PUSH1 0x40 DUP1 MLOAD DUP1 DUP3 ADD SWAP1 SWAP2 MSTORE PUSH1 0x1 DUP2 MSTORE PUSH1 0x3 PUSH1 0xFC SHL PUSH1 0x20 DUP3 ADD MSTORE SWAP1 JUMP JUMPDEST DUP2 PUSH1 0x0 JUMPDEST DUP2 ISZERO PUSH2 0x1612 JUMPI DUP1 PUSH2 0x15FC DUP2 PUSH2 0x20D6 JUMP JUMPDEST SWAP2 POP PUSH2 0x160B SWAP1 POP PUSH1 0xA DUP4 PUSH2 0x2044 JUMP JUMPDEST SWAP2 POP PUSH2 0x15EC JUMP JUMPDEST PUSH1 0x0 DUP2 PUSH8 0xFFFFFFFFFFFFFFFF DUP2 GT ISZERO PUSH2 0x162D JUMPI PUSH2 0x162D PUSH2 0x2147 JUMP JUMPDEST PUSH1 0x40 MLOAD SWAP1 DUP1 DUP3 MSTORE DUP1 PUSH1 0x1F ADD PUSH1 0x1F NOT AND PUSH1 0x20 ADD DUP3 ADD PUSH1 0x40 MSTORE DUP1 ISZERO PUSH2 0x1657 JUMPI PUSH1 0x20 DUP3 ADD DUP2 DUP1 CALLDATASIZE DUP4 CALLDATACOPY ADD SWAP1 POP JUMPDEST POP SWAP1 POP JUMPDEST DUP5 ISZERO PUSH2 0x11B4 JUMPI PUSH2 0x166C PUSH1 0x1 DUP4 PUSH2 0x2058 JUMP JUMPDEST SWAP2 POP PUSH2 0x1679 PUSH1 0xA DUP7 PUSH2 0x20F1 JUMP JUMPDEST PUSH2 0x1684 SWAP1 PUSH1 0x30 PUSH2 0x202C JUMP JUMPDEST PUSH1 0xF8 SHL DUP2 DUP4 DUP2 MLOAD DUP2 LT PUSH2 0x1699 JUMPI PUSH2 0x1699 PUSH2 0x2131 JUMP JUMPDEST PUSH1 0x20 ADD ADD SWAP1 PUSH1 0x1 PUSH1 0x1 PUSH1 0xF8 SHL SUB NOT AND SWAP1 DUP2 PUSH1 0x0 BYTE SWAP1 MSTORE8 POP PUSH2 0x16BB PUSH1 0xA DUP7 PUSH2 0x2044 JUMP JUMPDEST SWAP5 POP PUSH2 0x165B JUMP JUMPDEST PUSH1 0x6 SLOAD PUSH1 0xFF AND ISZERO PUSH2 0x826 JUMPI PUSH1 0x40 MLOAD PUSH3 0x461BCD PUSH1 0xE5 SHL DUP2 MSTORE PUSH1 0x4 ADD PUSH2 0x6F0 SWAP1 PUSH2 0x1F35 JUMP JUMPDEST PUSH2 0x16EF DUP4 DUP4 PUSH2 0x1825 JUMP JUMPDEST PUSH2 0x16FC PUSH1 0x0 DUP5 DUP5 DUP5 PUSH2 0x1718 JUMP JUMPDEST PUSH2 0x826 JUMPI PUSH1 0x40 MLOAD PUSH3 0x461BCD PUSH1 0xE5 SHL DUP2 MSTORE PUSH1 0x4 ADD PUSH2 0x6F0 SWAP1 PUSH2 0x1EE3 JUMP JUMPDEST PUSH1 0x0 PUSH1 0x1 PUSH1 0x1 PUSH1 0xA0 SHL SUB DUP5 AND EXTCODESIZE ISZERO PUSH2 0x181A JUMPI PUSH1 0x40 MLOAD PUSH4 0xA85BD01 PUSH1 0xE1 SHL DUP2 MSTORE PUSH1 0x1 PUSH1 0x1 PUSH1 0xA0 SHL SUB DUP6 AND SWAP1 PUSH4 0x150B7A02 SWAP1 PUSH2 0x175C SWAP1 CALLER SWAP1 DUP10 SWAP1 DUP9 SWAP1 DUP9 SWAP1 PUSH1 0x4 ADD PUSH2 0x1E93 JUMP JUMPDEST PUSH1 0x20 PUSH1 0x40 MLOAD DUP1 DUP4 SUB DUP2 PUSH1 0x0 DUP8 DUP1 EXTCODESIZE ISZERO DUP1 ISZERO PUSH2 0x1776 JUMPI PUSH1 0x0 DUP1 REVERT JUMPDEST POP GAS CALL SWAP3 POP POP POP DUP1 ISZERO PUSH2 0x17A6 JUMPI POP PUSH1 0x40 DUP1 MLOAD PUSH1 0x1F RETURNDATASIZE SWAP1 DUP2 ADD PUSH1 0x1F NOT AND DUP3 ADD SWAP1 SWAP3 MSTORE PUSH2 0x17A3 SWAP2 DUP2 ADD SWAP1 PUSH2 0x1CCB JUMP JUMPDEST PUSH1 0x1 JUMPDEST PUSH2 0x1800 JUMPI RETURNDATASIZE DUP1 DUP1 ISZERO PUSH2 0x17D4 JUMPI PUSH1 0x40 MLOAD SWAP2 POP PUSH1 0x1F NOT PUSH1 0x3F RETURNDATASIZE ADD AND DUP3 ADD PUSH1 0x40 MSTORE RETURNDATASIZE DUP3 MSTORE RETURNDATASIZE PUSH1 0x0 PUSH1 0x20 DUP5 ADD RETURNDATACOPY PUSH2 0x17D9 JUMP JUMPDEST PUSH1 0x60 SWAP2 POP JUMPDEST POP DUP1 MLOAD PUSH2 0x17F8 JUMPI PUSH1 0x40 MLOAD PUSH3 0x461BCD PUSH1 0xE5 SHL DUP2 MSTORE PUSH1 0x4 ADD PUSH2 0x6F0 SWAP1 PUSH2 0x1EE3 JUMP JUMPDEST DUP1 MLOAD DUP2 PUSH1 0x20 ADD REVERT JUMPDEST PUSH1 0x1 PUSH1 0x1 PUSH1 0xE0 SHL SUB NOT AND PUSH4 0xA85BD01 PUSH1 0xE1 SHL EQ SWAP1 POP PUSH2 0x11B4 JUMP JUMPDEST POP PUSH1 0x1 SWAP5 SWAP4 POP POP POP POP JUMP JUMPDEST PUSH1 0x1 PUSH1 0x1 PUSH1 0xA0 SHL SUB DUP3 AND PUSH2 0x187B JUMPI PUSH1 0x40 MLOAD PUSH3 0x461BCD PUSH1 0xE5 SHL DUP2 MSTORE PUSH1 0x20 PUSH1 0x4 DUP3 ADD DUP2 SWAP1 MSTORE PUSH1 0x24 DUP3 ADD MSTORE PUSH32 0x4552433732313A206D696E7420746F20746865207A65726F2061646472657373 PUSH1 0x44 DUP3 ADD MSTORE PUSH1 0x64 ADD PUSH2 0x6F0 JUMP JUMPDEST PUSH1 0x0 DUP2 DUP2 MSTORE PUSH1 0x2 PUSH1 0x20 MSTORE PUSH1 0x40 SWAP1 KECCAK256 SLOAD PUSH1 0x1 PUSH1 0x1 PUSH1 0xA0 SHL SUB AND ISZERO PUSH2 0x18E0 JUMPI PUSH1 0x40 MLOAD PUSH3 0x461BCD PUSH1 0xE5 SHL DUP2 MSTORE PUSH1 0x20 PUSH1 0x4 DUP3 ADD MSTORE PUSH1 0x1C PUSH1 0x24 DUP3 ADD MSTORE PUSH32 0x4552433732313A20746F6B656E20616C7265616479206D696E74656400000000 PUSH1 0x44 DUP3 ADD MSTORE PUSH1 0x64 ADD PUSH2 0x6F0 JUMP JUMPDEST PUSH2 0x18EC PUSH1 0x0 DUP4 DUP4 PUSH2 0x16C2 JUMP JUMPDEST PUSH1 0x1 PUSH1 0x1 PUSH1 0xA0 SHL SUB DUP3 AND PUSH1 0x0 SWAP1 DUP2 MSTORE PUSH1 0x3 PUSH1 0x20 MSTORE PUSH1 0x40 DUP2 KECCAK256 DUP1 SLOAD PUSH1 0x1 SWAP3 SWAP1 PUSH2 0x1915 SWAP1 DUP5 SWAP1 PUSH2 0x202C JUMP JUMPDEST SWAP1 SWAP2 SSTORE POP POP PUSH1 0x0 DUP2 DUP2 MSTORE PUSH1 0x2 PUSH1 0x20 MSTORE PUSH1 0x40 DUP1 DUP3 KECCAK256 DUP1 SLOAD PUSH1 0x1 PUSH1 0x1 PUSH1 0xA0 SHL SUB NOT AND PUSH1 0x1 PUSH1 0x1 PUSH1 0xA0 SHL SUB DUP7 AND SWAP1 DUP2 OR SWAP1 SWAP2 SSTORE SWAP1 MLOAD DUP4 SWAP3 SWAP1 PUSH32 0xDDF252AD1BE2C89B69C2B068FC378DAA952BA7F163C4A11628F55A4DF523B3EF SWAP1 DUP3 SWAP1 LOG4 POP POP JUMP JUMPDEST DUP3 DUP1 SLOAD PUSH2 0x197F SWAP1 PUSH2 0x209B JUMP JUMPDEST SWAP1 PUSH1 0x0 MSTORE PUSH1 0x20 PUSH1 0x0 KECCAK256 SWAP1 PUSH1 0x1F ADD PUSH1 0x20 SWAP1 DIV DUP2 ADD SWAP3 DUP3 PUSH2 0x19A1 JUMPI PUSH1 0x0 DUP6 SSTORE PUSH2 0x19E7 JUMP JUMPDEST DUP3 PUSH1 0x1F LT PUSH2 0x19BA JUMPI DUP3 DUP1 ADD PUSH1 0xFF NOT DUP3 CALLDATALOAD AND OR DUP6 SSTORE PUSH2 0x19E7 JUMP JUMPDEST DUP3 DUP1 ADD PUSH1 0x1 ADD DUP6 SSTORE DUP3 ISZERO PUSH2 0x19E7 JUMPI SWAP2 DUP3 ADD JUMPDEST DUP3 DUP2 GT ISZERO PUSH2 0x19E7 JUMPI DUP3 CALLDATALOAD DUP3 SSTORE SWAP2 PUSH1 0x20 ADD SWAP2 SWAP1 PUSH1 0x1 ADD SWAP1 PUSH2 0x19CC JUMP JUMPDEST POP PUSH2 0x19F3 SWAP3 SWAP2 POP PUSH2 0x19F7 JUMP JUMPDEST POP SWAP1 JUMP JUMPDEST JUMPDEST DUP1 DUP3 GT ISZERO PUSH2 0x19F3 JUMPI PUSH1 0x0 DUP2 SSTORE PUSH1 0x1 ADD PUSH2 0x19F8 JUMP JUMPDEST DUP1 CALLDATALOAD PUSH1 0x1 PUSH1 0x1 PUSH1 0xA0 SHL SUB DUP2 AND DUP2 EQ PUSH2 0xF9C JUMPI PUSH1 0x0 DUP1 REVERT JUMPDEST PUSH1 0x0 DUP1 DUP4 PUSH1 0x1F DUP5 ADD SLT PUSH2 0x1A35 JUMPI PUSH1 0x0 DUP1 REVERT JUMPDEST POP DUP2 CALLDATALOAD PUSH8 0xFFFFFFFFFFFFFFFF DUP2 GT ISZERO PUSH2 0x1A4D JUMPI PUSH1 0x0 DUP1 REVERT JUMPDEST PUSH1 0x20 DUP4 ADD SWAP2 POP DUP4 PUSH1 0x20 DUP3 PUSH1 0x5 SHL DUP6 ADD ADD GT ISZERO PUSH2 0x1A68 JUMPI PUSH1 0x0 DUP1 REVERT JUMPDEST SWAP3 POP SWAP3 SWAP1 POP JUMP JUMPDEST PUSH1 0x0 PUSH1 0x20 DUP3 DUP5 SUB SLT ISZERO PUSH2 0x1A81 JUMPI PUSH1 0x0 DUP1 REVERT JUMPDEST PUSH2 0x1A8A DUP3 PUSH2 0x1A0C JUMP JUMPDEST SWAP4 SWAP3 POP POP POP JUMP JUMPDEST PUSH1 0x0 DUP1 PUSH1 0x40 DUP4 DUP6 SUB SLT ISZERO PUSH2 0x1AA4 JUMPI PUSH1 0x0 DUP1 REVERT JUMPDEST PUSH2 0x1AAD DUP4 PUSH2 0x1A0C JUMP JUMPDEST SWAP2 POP PUSH2 0x1ABB PUSH1 0x20 DUP5 ADD PUSH2 0x1A0C JUMP JUMPDEST SWAP1 POP SWAP3 POP SWAP3 SWAP1 POP JUMP JUMPDEST PUSH1 0x0 DUP1 PUSH1 0x0 PUSH1 0x60 DUP5 DUP7 SUB SLT ISZERO PUSH2 0x1AD9 JUMPI PUSH1 0x0 DUP1 REVERT JUMPDEST PUSH2 0x1AE2 DUP5 PUSH2 0x1A0C JUMP JUMPDEST SWAP3 POP PUSH2 0x1AF0 PUSH1 0x20 DUP6 ADD PUSH2 0x1A0C JUMP JUMPDEST SWAP2 POP PUSH1 0x40 DUP5 ADD CALLDATALOAD SWAP1 POP SWAP3 POP SWAP3 POP SWAP3 JUMP JUMPDEST PUSH1 0x0 DUP1 PUSH1 0x0 DUP1 PUSH1 0x80 DUP6 DUP8 SUB SLT ISZERO PUSH2 0x1B16 JUMPI PUSH1 0x0 DUP1 REVERT JUMPDEST PUSH2 0x1B1F DUP6 PUSH2 0x1A0C JUMP JUMPDEST SWAP4 POP PUSH2 0x1B2D PUSH1 0x20 DUP7 ADD PUSH2 0x1A0C JUMP JUMPDEST SWAP3 POP PUSH1 0x40 DUP6 ADD CALLDATALOAD SWAP2 POP PUSH1 0x60 DUP6 ADD CALLDATALOAD PUSH8 0xFFFFFFFFFFFFFFFF DUP1 DUP3 GT ISZERO PUSH2 0x1B51 JUMPI PUSH1 0x0 DUP1 REVERT JUMPDEST DUP2 DUP8 ADD SWAP2 POP DUP8 PUSH1 0x1F DUP4 ADD SLT PUSH2 0x1B65 JUMPI PUSH1 0x0 DUP1 REVERT JUMPDEST DUP2 CALLDATALOAD DUP2 DUP2 GT ISZERO PUSH2 0x1B77 JUMPI PUSH2 0x1B77 PUSH2 0x2147 JUMP JUMPDEST PUSH1 0x40 MLOAD PUSH1 0x1F DUP3 ADD PUSH1 0x1F NOT SWAP1 DUP2 AND PUSH1 0x3F ADD AND DUP2 ADD SWAP1 DUP4 DUP3 GT DUP2 DUP4 LT OR ISZERO PUSH2 0x1B9F JUMPI PUSH2 0x1B9F PUSH2 0x2147 JUMP JUMPDEST DUP2 PUSH1 0x40 MSTORE DUP3 DUP2 MSTORE DUP11 PUSH1 0x20 DUP5 DUP8 ADD ADD GT ISZERO PUSH2 0x1BB8 JUMPI PUSH1 0x0 DUP1 REVERT JUMPDEST DUP3 PUSH1 0x20 DUP7 ADD PUSH1 0x20 DUP4 ADD CALLDATACOPY PUSH1 0x0 PUSH1 0x20 DUP5 DUP4 ADD ADD MSTORE DUP1 SWAP6 POP POP POP POP POP POP SWAP3 SWAP6 SWAP2 SWAP5 POP SWAP3 POP JUMP JUMPDEST PUSH1 0x0 DUP1 PUSH1 0x40 DUP4 DUP6 SUB SLT ISZERO PUSH2 0x1BEF JUMPI PUSH1 0x0 DUP1 REVERT JUMPDEST PUSH2 0x1BF8 DUP4 PUSH2 0x1A0C JUMP JUMPDEST SWAP2 POP PUSH1 0x20 DUP4 ADD CALLDATALOAD DUP1 ISZERO ISZERO DUP2 EQ PUSH2 0x1C0D JUMPI PUSH1 0x0 DUP1 REVERT JUMPDEST DUP1 SWAP2 POP POP SWAP3 POP SWAP3 SWAP1 POP JUMP JUMPDEST PUSH1 0x0 DUP1 PUSH1 0x40 DUP4 DUP6 SUB SLT ISZERO PUSH2 0x1C2B JUMPI PUSH1 0x0 DUP1 REVERT JUMPDEST PUSH2 0x1C34 DUP4 PUSH2 0x1A0C JUMP JUMPDEST SWAP5 PUSH1 0x20 SWAP4 SWAP1 SWAP4 ADD CALLDATALOAD SWAP4 POP POP POP JUMP JUMPDEST PUSH1 0x0 DUP1 PUSH1 0x0 DUP1 PUSH1 0x40 DUP6 DUP8 SUB SLT ISZERO PUSH2 0x1C58 JUMPI PUSH1 0x0 DUP1 REVERT JUMPDEST DUP5 CALLDATALOAD PUSH8 0xFFFFFFFFFFFFFFFF DUP1 DUP3 GT ISZERO PUSH2 0x1C70 JUMPI PUSH1 0x0 DUP1 REVERT JUMPDEST PUSH2 0x1C7C DUP9 DUP4 DUP10 ADD PUSH2 0x1A23 JUMP JUMPDEST SWAP1 SWAP7 POP SWAP5 POP PUSH1 0x20 DUP8 ADD CALLDATALOAD SWAP2 POP DUP1 DUP3 GT ISZERO PUSH2 0x1C95 JUMPI PUSH1 0x0 DUP1 REVERT JUMPDEST POP PUSH2 0x1CA2 DUP8 DUP3 DUP9 ADD PUSH2 0x1A23 JUMP JUMPDEST SWAP6 SWAP9 SWAP5 SWAP8 POP SWAP6 POP POP POP POP JUMP JUMPDEST PUSH1 0x0 PUSH1 0x20 DUP3 DUP5 SUB SLT ISZERO PUSH2 0x1CC0 JUMPI PUSH1 0x0 DUP1 REVERT JUMPDEST DUP2 CALLDATALOAD PUSH2 0x1A8A DUP2 PUSH2 0x215D JUMP JUMPDEST PUSH1 0x0 PUSH1 0x20 DUP3 DUP5 SUB SLT ISZERO PUSH2 0x1CDD JUMPI PUSH1 0x0 DUP1 REVERT JUMPDEST DUP2 MLOAD PUSH2 0x1A8A DUP2 PUSH2 0x215D JUMP JUMPDEST PUSH1 0x0 DUP1 PUSH1 0x20 DUP4 DUP6 SUB SLT ISZERO PUSH2 0x1CFB JUMPI PUSH1 0x0 DUP1 REVERT JUMPDEST DUP3 CALLDATALOAD PUSH8 0xFFFFFFFFFFFFFFFF DUP1 DUP3 GT ISZERO PUSH2 0x1D13 JUMPI PUSH1 0x0 DUP1 REVERT JUMPDEST DUP2 DUP6 ADD SWAP2 POP DUP6 PUSH1 0x1F DUP4 ADD SLT PUSH2 0x1D27 JUMPI PUSH1 0x0 DUP1 REVERT JUMPDEST DUP2 CALLDATALOAD DUP2 DUP2 GT ISZERO PUSH2 0x1D36 JUMPI PUSH1 0x0 DUP1 REVERT JUMPDEST DUP7 PUSH1 0x20 DUP3 DUP6 ADD ADD GT ISZERO PUSH2 0x1D48 JUMPI PUSH1 0x0 DUP1 REVERT JUMPDEST PUSH1 0x20 SWAP3 SWAP1 SWAP3 ADD SWAP7 SWAP2 SWAP6 POP SWAP1 SWAP4 POP POP POP POP JUMP JUMPDEST PUSH1 0x0 PUSH1 0x20 DUP3 DUP5 SUB SLT ISZERO PUSH2 0x1D6C JUMPI PUSH1 0x0 DUP1 REVERT JUMPDEST POP CALLDATALOAD SWAP2 SWAP1 POP JUMP JUMPDEST PUSH1 0x0 DUP2 MLOAD DUP1 DUP5 MSTORE PUSH2 0x1D8B DUP2 PUSH1 0x20 DUP7 ADD PUSH1 0x20 DUP7 ADD PUSH2 0x206F JUMP JUMPDEST PUSH1 0x1F ADD PUSH1 0x1F NOT AND SWAP3 SWAP1 SWAP3 ADD PUSH1 0x20 ADD SWAP3 SWAP2 POP POP JUMP JUMPDEST DUP1 SLOAD PUSH1 0x0 SWAP1 PUSH1 0x1 DUP2 DUP2 SHR SWAP1 DUP1 DUP4 AND DUP1 PUSH2 0x1DB9 JUMPI PUSH1 0x7F DUP4 AND SWAP3 POP JUMPDEST PUSH1 0x20 DUP1 DUP5 LT DUP3 EQ ISZERO PUSH2 0x1DDB JUMPI PUSH4 0x4E487B71 PUSH1 0xE0 SHL PUSH1 0x0 MSTORE PUSH1 0x22 PUSH1 0x4 MSTORE PUSH1 0x24 PUSH1 0x0 REVERT JUMPDEST DUP2 DUP1 ISZERO PUSH2 0x1DEF JUMPI PUSH1 0x1 DUP2 EQ PUSH2 0x1E00 JUMPI PUSH2 0x1E2D JUMP JUMPDEST PUSH1 0xFF NOT DUP7 AND DUP10 MSTORE DUP5 DUP10 ADD SWAP7 POP PUSH2 0x1E2D JUMP JUMPDEST PUSH1 0x0 DUP9 DUP2 MSTORE PUSH1 0x20 SWAP1 KECCAK256 PUSH1 0x0 JUMPDEST DUP7 DUP2 LT ISZERO PUSH2 0x1E25 JUMPI DUP2 SLOAD DUP12 DUP3 ADD MSTORE SWAP1 DUP6 ADD SWAP1 DUP4 ADD PUSH2 0x1E0C JUMP JUMPDEST POP POP DUP5 DUP10 ADD SWAP7 POP JUMPDEST POP POP POP POP POP POP SWAP3 SWAP2 POP POP JUMP JUMPDEST PUSH1 0x0 PUSH2 0x1E45 DUP3 DUP6 PUSH2 0x1D9F JUMP JUMPDEST DUP4 MLOAD PUSH2 0x1E55 DUP2 DUP4 PUSH1 0x20 DUP9 ADD PUSH2 0x206F JUMP JUMPDEST ADD SWAP5 SWAP4 POP POP POP POP JUMP JUMPDEST PUSH1 0x0 PUSH2 0x1E6A DUP3 DUP6 PUSH2 0x1D9F JUMP JUMPDEST DUP4 MLOAD PUSH2 0x1E7A DUP2 DUP4 PUSH1 0x20 DUP9 ADD PUSH2 0x206F JUMP JUMPDEST PUSH5 0x173539B7B7 PUSH1 0xD9 SHL SWAP2 ADD SWAP1 DUP2 MSTORE PUSH1 0x5 ADD SWAP5 SWAP4 POP POP POP POP JUMP JUMPDEST PUSH1 0x1 PUSH1 0x1 PUSH1 0xA0 SHL SUB DUP6 DUP2 AND DUP3 MSTORE DUP5 AND PUSH1 0x20 DUP3 ADD MSTORE PUSH1 0x40 DUP2 ADD DUP4 SWAP1 MSTORE PUSH1 0x80 PUSH1 0x60 DUP3 ADD DUP2 SWAP1 MSTORE PUSH1 0x0 SWAP1 PUSH2 0x1EC6 SWAP1 DUP4 ADD DUP5 PUSH2 0x1D73 JUMP JUMPDEST SWAP7 SWAP6 POP POP POP POP POP POP JUMP JUMPDEST PUSH1 0x20 DUP2 MSTORE PUSH1 0x0 PUSH2 0x1A8A PUSH1 0x20 DUP4 ADD DUP5 PUSH2 0x1D73 JUMP JUMPDEST PUSH1 0x20 DUP1 DUP3 MSTORE PUSH1 0x32 SWAP1 DUP3 ADD MSTORE PUSH32 0x4552433732313A207472616E7366657220746F206E6F6E204552433732315265 PUSH1 0x40 DUP3 ADD MSTORE PUSH18 0x31B2B4BB32B91034B6B83632B6B2B73A32B9 PUSH1 0x71 SHL PUSH1 0x60 DUP3 ADD MSTORE PUSH1 0x80 ADD SWAP1 JUMP JUMPDEST PUSH1 0x20 DUP1 DUP3 MSTORE PUSH1 0x10 SWAP1 DUP3 ADD MSTORE PUSH16 0x14185D5CD8589B194E881C185D5CD959 PUSH1 0x82 SHL PUSH1 0x40 DUP3 ADD MSTORE PUSH1 0x60 ADD SWAP1 JUMP JUMPDEST PUSH1 0x20 DUP1 DUP3 MSTORE DUP2 DUP2 ADD MSTORE PUSH32 0x4F776E61626C653A2063616C6C6572206973206E6F7420746865206F776E6572 PUSH1 0x40 DUP3 ADD MSTORE PUSH1 0x60 ADD SWAP1 JUMP JUMPDEST PUSH1 0x20 DUP1 DUP3 MSTORE PUSH1 0x31 SWAP1 DUP3 ADD MSTORE PUSH32 0x4552433732313A207472616E736665722063616C6C6572206973206E6F74206F PUSH1 0x40 DUP3 ADD MSTORE PUSH17 0x1DDB995C881B9BDC88185C1C1C9BDD9959 PUSH1 0x7A SHL PUSH1 0x60 DUP3 ADD MSTORE PUSH1 0x80 ADD SWAP1 JUMP JUMPDEST PUSH1 0x0 DUP1 DUP4 CALLDATALOAD PUSH1 0x1E NOT DUP5 CALLDATASIZE SUB ADD DUP2 SLT PUSH2 0x1FFC JUMPI PUSH1 0x0 DUP1 REVERT JUMPDEST DUP4 ADD DUP1 CALLDATALOAD SWAP2 POP PUSH8 0xFFFFFFFFFFFFFFFF DUP3 GT ISZERO PUSH2 0x2017 JUMPI PUSH1 0x0 DUP1 REVERT JUMPDEST PUSH1 0x20 ADD SWAP2 POP CALLDATASIZE DUP2 SWAP1 SUB DUP3 SGT ISZERO PUSH2 0x1A68 JUMPI PUSH1 0x0 DUP1 REVERT JUMPDEST PUSH1 0x0 DUP3 NOT DUP3 GT ISZERO PUSH2 0x203F JUMPI PUSH2 0x203F PUSH2 0x2105 JUMP JUMPDEST POP ADD SWAP1 JUMP JUMPDEST PUSH1 0x0 DUP3 PUSH2 0x2053 JUMPI PUSH2 0x2053 PUSH2 0x211B JUMP JUMPDEST POP DIV SWAP1 JUMP JUMPDEST PUSH1 0x0 DUP3 DUP3 LT ISZERO PUSH2 0x206A JUMPI PUSH2 0x206A PUSH2 0x2105 JUMP JUMPDEST POP SUB SWAP1 JUMP JUMPDEST PUSH1 0x0 JUMPDEST DUP4 DUP2 LT ISZERO PUSH2 0x208A JUMPI DUP2 DUP2 ADD MLOAD DUP4 DUP3 ADD MSTORE PUSH1 0x20 ADD PUSH2 0x2072 JUMP JUMPDEST DUP4 DUP2 GT ISZERO PUSH2 0xE01 JUMPI POP POP PUSH1 0x0 SWAP2 ADD MSTORE JUMP JUMPDEST PUSH1 0x1 DUP2 DUP2 SHR SWAP1 DUP3 AND DUP1 PUSH2 0x20AF JUMPI PUSH1 0x7F DUP3 AND SWAP2 POP JUMPDEST PUSH1 0x20 DUP3 LT DUP2 EQ ISZERO PUSH2 0x20D0 JUMPI PUSH4 0x4E487B71 PUSH1 0xE0 SHL PUSH1 0x0 MSTORE PUSH1 0x22 PUSH1 0x4 MSTORE PUSH1 0x24 PUSH1 0x0 REVERT JUMPDEST POP SWAP2 SWAP1 POP JUMP JUMPDEST PUSH1 0x0 PUSH1 0x0 NOT DUP3 EQ ISZERO PUSH2 0x20EA JUMPI PUSH2 0x20EA PUSH2 0x2105 JUMP JUMPDEST POP PUSH1 0x1 ADD SWAP1 JUMP JUMPDEST PUSH1 0x0 DUP3 PUSH2 0x2100 JUMPI PUSH2 0x2100 PUSH2 0x211B JUMP JUMPDEST POP MOD SWAP1 JUMP JUMPDEST PUSH4 0x4E487B71 PUSH1 0xE0 SHL PUSH1 0x0 MSTORE PUSH1 0x11 PUSH1 0x4 MSTORE PUSH1 0x24 PUSH1 0x0 REVERT JUMPDEST PUSH4 0x4E487B71 PUSH1 0xE0 SHL PUSH1 0x0 MSTORE PUSH1 0x12 PUSH1 0x4 MSTORE PUSH1 0x24 PUSH1 0x0 REVERT JUMPDEST PUSH4 0x4E487B71 PUSH1 0xE0 SHL PUSH1 0x0 MSTORE PUSH1 0x32 PUSH1 0x4 MSTORE PUSH1 0x24 PUSH1 0x0 REVERT JUMPDEST PUSH4 0x4E487B71 PUSH1 0xE0 SHL PUSH1 0x0 MSTORE PUSH1 0x41 PUSH1 0x4 MSTORE PUSH1 0x24 PUSH1 0x0 REVERT JUMPDEST PUSH1 0x1 PUSH1 0x1 PUSH1 0xE0 SHL SUB NOT DUP2 AND DUP2 EQ PUSH2 0xC7D JUMPI PUSH1 0x0 DUP1 REVERT INVALID LOG2 PUSH5 0x6970667358 0x22 SLT KECCAK256 0x2F 0xB4 ADD PUSH10 0x96A14DD8010544A72898 MSIZE 0xC3 0xBC STATICCALL 0x2E 0xAD 0xD RETURN PUSH22 0xE11D69F0BCE3CABA0664736F6C634300080700336874 PUSH21 0x70733A2F2F616E696D612E6C766C39392E69642F6D PUSH6 0x746164617461 0x2F PUSH4 0x6F6E7472 PUSH2 0x6374 0x2E PUSH11 0x736F6E68747470733A2F2F PUSH2 0x6E69 PUSH14 0x612E6C766C39392E69642F6D6574 PUSH2 0x6461 PUSH21 0x612F706C616365686F6C6465722F00000000000000 "
  }
}